{
  "address": "0x00A63AA0144ac8e7a5CB4CF3c745a58BBB23Ec49",
  "abi": [
    {
      "anonymous": false,
      "inputs": [
        {
          "indexed": false,
          "internalType": "address",
          "name": "newBeneficiary",
          "type": "address"
        }
      ],
      "name": "BeneficiaryChanged",
      "type": "event"
    },
    {
      "anonymous": false,
      "inputs": [],
      "name": "LockAccepted",
      "type": "event"
    },
    {
      "anonymous": false,
      "inputs": [],
      "name": "LockCanceled",
      "type": "event"
    },
    {
      "anonymous": false,
      "inputs": [
        {
          "indexed": true,
          "internalType": "address",
          "name": "_oldManager",
          "type": "address"
        },
        {
          "indexed": true,
          "internalType": "address",
          "name": "_newManager",
          "type": "address"
        }
      ],
      "name": "ManagerUpdated",
      "type": "event"
    },
    {
      "anonymous": false,
      "inputs": [
        {
          "indexed": true,
          "internalType": "address",
          "name": "previousOwner",
          "type": "address"
        },
        {
          "indexed": true,
          "internalType": "address",
          "name": "newOwner",
          "type": "address"
        }
      ],
      "name": "OwnershipTransferred",
      "type": "event"
    },
    {
      "anonymous": false,
      "inputs": [],
      "name": "TokenDestinationsApproved",
      "type": "event"
    },
    {
      "anonymous": false,
      "inputs": [],
      "name": "TokenDestinationsRevoked",
      "type": "event"
    },
    {
      "anonymous": false,
      "inputs": [
        {
          "indexed": true,
          "internalType": "address",
          "name": "beneficiary",
          "type": "address"
        },
        {
          "indexed": false,
          "internalType": "uint256",
          "name": "amount",
          "type": "uint256"
        }
      ],
      "name": "TokensReleased",
      "type": "event"
    },
    {
      "anonymous": false,
      "inputs": [
        {
          "indexed": true,
          "internalType": "address",
          "name": "beneficiary",
          "type": "address"
        },
        {
          "indexed": false,
          "internalType": "uint256",
          "name": "amount",
          "type": "uint256"
        }
      ],
      "name": "TokensRevoked",
      "type": "event"
    },
    {
      "anonymous": false,
      "inputs": [
        {
          "indexed": true,
          "internalType": "address",
          "name": "beneficiary",
          "type": "address"
        },
        {
          "indexed": false,
          "internalType": "uint256",
          "name": "amount",
          "type": "uint256"
        }
      ],
      "name": "TokensWithdrawn",
      "type": "event"
    },
    {
      "stateMutability": "payable",
      "type": "fallback"
    },
    {
      "inputs": [],
      "name": "acceptLock",
      "outputs": [],
      "stateMutability": "nonpayable",
      "type": "function"
    },
    {
      "inputs": [],
      "name": "amountPerPeriod",
      "outputs": [
        {
          "internalType": "uint256",
          "name": "",
          "type": "uint256"
        }
      ],
      "stateMutability": "view",
      "type": "function"
    },
    {
      "inputs": [],
      "name": "approveProtocol",
      "outputs": [],
      "stateMutability": "nonpayable",
      "type": "function"
    },
    {
      "inputs": [],
      "name": "availableAmount",
      "outputs": [
        {
          "internalType": "uint256",
          "name": "",
          "type": "uint256"
        }
      ],
      "stateMutability": "view",
      "type": "function"
    },
    {
      "inputs": [],
      "name": "beneficiary",
      "outputs": [
        {
          "internalType": "address",
          "name": "",
          "type": "address"
        }
      ],
      "stateMutability": "view",
      "type": "function"
    },
    {
      "inputs": [],
      "name": "cancelLock",
      "outputs": [],
      "stateMutability": "nonpayable",
      "type": "function"
    },
    {
      "inputs": [
        {
          "internalType": "address",
          "name": "_newBeneficiary",
          "type": "address"
        }
      ],
      "name": "changeBeneficiary",
      "outputs": [],
      "stateMutability": "nonpayable",
      "type": "function"
    },
    {
      "inputs": [],
      "name": "currentBalance",
      "outputs": [
        {
          "internalType": "uint256",
          "name": "",
          "type": "uint256"
        }
      ],
      "stateMutability": "view",
      "type": "function"
    },
    {
      "inputs": [],
      "name": "currentPeriod",
      "outputs": [
        {
          "internalType": "uint256",
          "name": "",
          "type": "uint256"
        }
      ],
      "stateMutability": "view",
      "type": "function"
    },
    {
      "inputs": [],
      "name": "currentTime",
      "outputs": [
        {
          "internalType": "uint256",
          "name": "",
          "type": "uint256"
        }
      ],
      "stateMutability": "view",
      "type": "function"
    },
    {
      "inputs": [],
      "name": "duration",
      "outputs": [
        {
          "internalType": "uint256",
          "name": "",
          "type": "uint256"
        }
      ],
      "stateMutability": "view",
      "type": "function"
    },
    {
      "inputs": [],
      "name": "endTime",
      "outputs": [
        {
          "internalType": "uint256",
          "name": "",
          "type": "uint256"
        }
      ],
      "stateMutability": "view",
      "type": "function"
    },
    {
      "inputs": [
        {
          "internalType": "address",
          "name": "_manager",
          "type": "address"
        },
        {
          "internalType": "address",
          "name": "_owner",
          "type": "address"
        },
        {
          "internalType": "address",
          "name": "_beneficiary",
          "type": "address"
        },
        {
          "internalType": "address",
          "name": "_token",
          "type": "address"
        },
        {
          "internalType": "uint256",
          "name": "_managedAmount",
          "type": "uint256"
        },
        {
          "internalType": "uint256",
          "name": "_startTime",
          "type": "uint256"
        },
        {
          "internalType": "uint256",
          "name": "_endTime",
          "type": "uint256"
        },
        {
          "internalType": "uint256",
          "name": "_periods",
          "type": "uint256"
        },
        {
          "internalType": "uint256",
          "name": "_releaseStartTime",
          "type": "uint256"
        },
        {
          "internalType": "uint256",
          "name": "_vestingCliffTime",
          "type": "uint256"
        },
        {
          "internalType": "enum IGraphTokenLock.Revocability",
          "name": "_revocable",
          "type": "uint8"
        }
      ],
      "name": "initialize",
      "outputs": [],
      "stateMutability": "nonpayable",
      "type": "function"
    },
    {
      "inputs": [],
      "name": "isAccepted",
      "outputs": [
        {
          "internalType": "bool",
          "name": "",
          "type": "bool"
        }
      ],
      "stateMutability": "view",
      "type": "function"
    },
    {
      "inputs": [],
      "name": "isInitialized",
      "outputs": [
        {
          "internalType": "bool",
          "name": "",
          "type": "bool"
        }
      ],
      "stateMutability": "view",
      "type": "function"
    },
    {
      "inputs": [],
      "name": "isRevoked",
      "outputs": [
        {
          "internalType": "bool",
          "name": "",
          "type": "bool"
        }
      ],
      "stateMutability": "view",
      "type": "function"
    },
    {
      "inputs": [],
      "name": "managedAmount",
      "outputs": [
        {
          "internalType": "uint256",
          "name": "",
          "type": "uint256"
        }
      ],
      "stateMutability": "view",
      "type": "function"
    },
    {
      "inputs": [],
      "name": "manager",
      "outputs": [
        {
          "internalType": "contract IGraphTokenLockManager",
          "name": "",
          "type": "address"
        }
      ],
      "stateMutability": "view",
      "type": "function"
    },
    {
      "inputs": [],
      "name": "owner",
      "outputs": [
        {
          "internalType": "address",
          "name": "",
          "type": "address"
        }
      ],
      "stateMutability": "view",
      "type": "function"
    },
    {
      "inputs": [],
      "name": "passedPeriods",
      "outputs": [
        {
          "internalType": "uint256",
          "name": "",
          "type": "uint256"
        }
      ],
      "stateMutability": "view",
      "type": "function"
    },
    {
      "inputs": [],
      "name": "periodDuration",
      "outputs": [
        {
          "internalType": "uint256",
          "name": "",
          "type": "uint256"
        }
      ],
      "stateMutability": "view",
      "type": "function"
    },
    {
      "inputs": [],
      "name": "periods",
      "outputs": [
        {
          "internalType": "uint256",
          "name": "",
          "type": "uint256"
        }
      ],
      "stateMutability": "view",
      "type": "function"
    },
    {
      "inputs": [],
      "name": "releasableAmount",
      "outputs": [
        {
          "internalType": "uint256",
          "name": "",
          "type": "uint256"
        }
      ],
      "stateMutability": "view",
      "type": "function"
    },
    {
      "inputs": [],
      "name": "release",
      "outputs": [],
      "stateMutability": "nonpayable",
      "type": "function"
    },
    {
      "inputs": [],
      "name": "releaseStartTime",
      "outputs": [
        {
          "internalType": "uint256",
          "name": "",
          "type": "uint256"
        }
      ],
      "stateMutability": "view",
      "type": "function"
    },
    {
      "inputs": [],
      "name": "releasedAmount",
      "outputs": [
        {
          "internalType": "uint256",
          "name": "",
          "type": "uint256"
        }
      ],
      "stateMutability": "view",
      "type": "function"
    },
    {
      "inputs": [],
      "name": "renounceOwnership",
      "outputs": [],
      "stateMutability": "nonpayable",
      "type": "function"
    },
    {
      "inputs": [],
      "name": "revocable",
      "outputs": [
        {
          "internalType": "enum IGraphTokenLock.Revocability",
          "name": "",
          "type": "uint8"
        }
      ],
      "stateMutability": "view",
      "type": "function"
    },
    {
      "inputs": [],
      "name": "revoke",
      "outputs": [],
      "stateMutability": "nonpayable",
      "type": "function"
    },
    {
      "inputs": [],
      "name": "revokeProtocol",
      "outputs": [],
      "stateMutability": "nonpayable",
      "type": "function"
    },
    {
      "inputs": [
        {
          "internalType": "address",
          "name": "_newManager",
          "type": "address"
        }
      ],
      "name": "setManager",
      "outputs": [],
      "stateMutability": "nonpayable",
      "type": "function"
    },
    {
      "inputs": [],
      "name": "sinceStartTime",
      "outputs": [
        {
          "internalType": "uint256",
          "name": "",
          "type": "uint256"
        }
      ],
      "stateMutability": "view",
      "type": "function"
    },
    {
      "inputs": [],
      "name": "startTime",
      "outputs": [
        {
          "internalType": "uint256",
          "name": "",
          "type": "uint256"
        }
      ],
      "stateMutability": "view",
      "type": "function"
    },
    {
      "inputs": [],
      "name": "surplusAmount",
      "outputs": [
        {
          "internalType": "uint256",
          "name": "",
          "type": "uint256"
        }
      ],
      "stateMutability": "view",
      "type": "function"
    },
    {
      "inputs": [],
      "name": "token",
      "outputs": [
        {
          "internalType": "contract IERC20",
          "name": "",
          "type": "address"
        }
      ],
      "stateMutability": "view",
      "type": "function"
    },
    {
      "inputs": [],
      "name": "totalOutstandingAmount",
      "outputs": [
        {
          "internalType": "uint256",
          "name": "",
          "type": "uint256"
        }
      ],
      "stateMutability": "view",
      "type": "function"
    },
    {
      "inputs": [
        {
          "internalType": "address",
          "name": "newOwner",
          "type": "address"
        }
      ],
      "name": "transferOwnership",
      "outputs": [],
      "stateMutability": "nonpayable",
      "type": "function"
    },
    {
      "inputs": [],
      "name": "usedAmount",
      "outputs": [
        {
          "internalType": "uint256",
          "name": "",
          "type": "uint256"
        }
      ],
      "stateMutability": "view",
      "type": "function"
    },
    {
      "inputs": [],
      "name": "vestedAmount",
      "outputs": [
        {
          "internalType": "uint256",
          "name": "",
          "type": "uint256"
        }
      ],
      "stateMutability": "view",
      "type": "function"
    },
    {
      "inputs": [],
      "name": "vestingCliffTime",
      "outputs": [
        {
          "internalType": "uint256",
          "name": "",
          "type": "uint256"
        }
      ],
      "stateMutability": "view",
      "type": "function"
    },
    {
      "inputs": [
        {
          "internalType": "uint256",
          "name": "_amount",
          "type": "uint256"
        }
      ],
      "name": "withdrawSurplus",
      "outputs": [],
      "stateMutability": "nonpayable",
      "type": "function"
    }
  ],
  "transactionHash": "0x2198b6072801b349b5786609350885c0861532a7d54b951a45eede23fda9052f",
  "args": [],
  "solcInputHash": "7b2e90d078ed02319557532056e1847d",
  "bytecode": "0x608060405234801561001057600080fd5b50613e0d806100206000396000f3fe60806040526004361061024a5760003560e01c806386d00e0211610139578063bc0163c1116100b6578063dc0706571161007a578063dc07065714610cd8578063e8dda6f514610d29578063e97d87d514610d54578063ebbab99214610d7f578063f2fde38b14610daa578063fc0c546a14610dfb5761024b565b8063bc0163c114610b0b578063bd896dcb14610b36578063ce845d1d14610c31578063d0ebdbe714610c5c578063d18e81b314610cad5761024b565b806391f7cfb9116100fd57806391f7cfb914610a38578063a4caeb4214610a63578063b0d1818c14610a8e578063b470aade14610ac9578063b6549f7514610af45761024b565b806386d00e021461096857806386d1a69f14610993578063872a7810146109aa5780638a5bdf5c146109e05780638da5cb5b146109f75761024b565b8063398057a3116101c75780635b9400811161018b5780635b940081146108b957806360e79944146108e4578063715018a6146108fb57806378e97925146109125780637bdf05af1461093d5761024b565b8063398057a3146107ca57806344b1231f146107f557806345d30a1714610820578063481c6a751461084b5780635051a5ec1461088c5761024b565b80632a6278141161020e5780632a627814146106ed5780632bc9ed02146107045780633197cbb61461073157806338af3eed1461075c578063392e53cd1461079d5761024b565b8063029c6c9f1461062a57806306040618146106555780630b80f777146106805780630dff24d5146106975780630fb5a6b4146106c25761024b565b5b600260009054906101000a900473ffffffffffffffffffffffffffffffffffffffff1673ffffffffffffffffffffffffffffffffffffffff163373ffffffffffffffffffffffffffffffffffffffff161461030e576040517f08c379a00000000000000000000000000000000000000000000000000000000081526004018080602001828103825260138152602001807f556e617574686f72697a65642063616c6c65720000000000000000000000000081525060200191505060405180910390fd5b6000600b60009054906101000a900473ffffffffffffffffffffffffffffffffffffffff1673ffffffffffffffffffffffffffffffffffffffff1663f1d24c456000357fffffffff00000000000000000000000000000000000000000000000000000000166040518263ffffffff1660e01b815260040180827bffffffffffffffffffffffffffffffffffffffffffffffffffffffff1916815260200191505060206040518083038186803b1580156103c657600080fd5b505afa1580156103da573d6000803e3d6000fd5b505050506040513d60208110156103f057600080fd5b81019080805190602001909291905050509050600073ffffffffffffffffffffffffffffffffffffffff168173ffffffffffffffffffffffffffffffffffffffff1614156104a6576040517f08c379a00000000000000000000000000000000000000000000000000000000081526004018080602001828103825260158152602001807f556e617574686f72697a65642066756e6374696f6e000000000000000000000081525060200191505060405180910390fd5b60006104b0610e3c565b9050610501826000368080601f016020809104026020016040519081016040528093929190818152602001838380828437600081840152601f19601f82011690508083019250505050505050610f07565b506001600281111561050f57fe5b600960009054906101000a900460ff16600281111561052a57fe5b141561062657600061053a610e3c565b90508181101561057c5760006105598284610f5190919063ffffffff16565b905061057081600c54610f9b90919063ffffffff16565b600c81905550506105c2565b60006105918383610f5190919063ffffffff16565b9050600c548110156105b7576105b281600c54610f5190919063ffffffff16565b6105ba565b60005b600c81905550505b6105ca611023565b600c541115610624576040517f08c379a0000000000000000000000000000000000000000000000000000000008152600401808060200182810382526029815260200180613ce06029913960400191505060405180910390fd5b505b5050005b34801561063657600080fd5b5061063f611092565b6040518082815260200191505060405180910390f35b34801561066157600080fd5b5061066a6110b0565b6040518082815260200191505060405180910390f35b34801561068c57600080fd5b506106956110eb565b005b3480156106a357600080fd5b506106ac6112be565b6040518082815260200191505060405180910390f35b3480156106ce57600080fd5b506106d7611305565b6040518082815260200191505060405180910390f35b3480156106f957600080fd5b50610702611323565b005b34801561071057600080fd5b506107196115f0565b60405180821515815260200191505060405180910390f35b34801561073d57600080fd5b50610746611603565b6040518082815260200191505060405180910390f35b34801561076857600080fd5b50610771611609565b604051808273ffffffffffffffffffffffffffffffffffffffff16815260200191505060405180910390f35b3480156107a957600080fd5b506107b261162f565b60405180821515815260200191505060405180910390f35b3480156107d657600080fd5b506107df611642565b6040518082815260200191505060405180910390f35b34801561080157600080fd5b5061080a611023565b6040518082815260200191505060405180910390f35b34801561082c57600080fd5b50610835611648565b6040518082815260200191505060405180910390f35b34801561085757600080fd5b5061086061164e565b604051808273ffffffffffffffffffffffffffffffffffffffff16815260200191505060405180910390f35b34801561089857600080fd5b506108a1611674565b60405180821515815260200191505060405180910390f35b3480156108c557600080fd5b506108ce611687565b6040518082815260200191505060405180910390f35b3480156108f057600080fd5b506108f9611741565b005b34801561090757600080fd5b506109106119ef565b005b34801561091e57600080fd5b50610927611b6e565b6040518082815260200191505060405180910390f35b34801561094957600080fd5b50610952611b74565b6040518082815260200191505060405180910390f35b34801561097457600080fd5b5061097d611bb0565b6040518082815260200191505060405180910390f35b34801561099f57600080fd5b506109a8611bb6565b005b3480156109b657600080fd5b506109bf611df8565b604051808260028111156109cf57fe5b815260200191505060405180910390f35b3480156109ec57600080fd5b506109f5611e0b565b005b348015610a0357600080fd5b50610a0c611f17565b604051808273ffffffffffffffffffffffffffffffffffffffff16815260200191505060405180910390f35b348015610a4457600080fd5b50610a4d611f40565b6040518082815260200191505060405180910390f35b348015610a6f57600080fd5b50610a78611f9e565b6040518082815260200191505060405180910390f35b348015610a9a57600080fd5b50610ac760048036036020811015610ab157600080fd5b8101908080359060200190929190505050611fa4565b005b348015610ad557600080fd5b50610ade61221f565b6040518082815260200191505060405180910390f35b348015610b0057600080fd5b50610b09612242565b005b348015610b1757600080fd5b50610b2061259f565b6040518082815260200191505060405180910390f35b348015610b4257600080fd5b50610c2f6004803603610160811015610b5a57600080fd5b81019080803573ffffffffffffffffffffffffffffffffffffffff169060200190929190803573ffffffffffffffffffffffffffffffffffffffff169060200190929190803573ffffffffffffffffffffffffffffffffffffffff169060200190929190803573ffffffffffffffffffffffffffffffffffffffff169060200190929190803590602001909291908035906020019092919080359060200190929190803590602001909291908035906020019092919080359060200190929190803560ff1690602001909291905050506125bd565b005b348015610c3d57600080fd5b50610c46610e3c565b6040518082815260200191505060405180910390f35b348015610c6857600080fd5b50610cab60048036036020811015610c7f57600080fd5b81019080803573ffffffffffffffffffffffffffffffffffffffff1690602001909291905050506125e5565b005b348015610cb957600080fd5b50610cc26126b2565b6040518082815260200191505060405180910390f35b348015610ce457600080fd5b50610d2760048036036020811015610cfb57600080fd5b81019080803573ffffffffffffffffffffffffffffffffffffffff1690602001909291905050506126ba565b005b348015610d3557600080fd5b50610d3e6128b1565b6040518082815260200191505060405180910390f35b348015610d6057600080fd5b50610d696128b7565b6040518082815260200191505060405180910390f35b348015610d8b57600080fd5b50610d946128bd565b6040518082815260200191505060405180910390f35b348015610db657600080fd5b50610df960048036036020811015610dcd57600080fd5b81019080803573ffffffffffffffffffffffffffffffffffffffff1690602001909291905050506128df565b005b348015610e0757600080fd5b50610e10612ae3565b604051808273ffffffffffffffffffffffffffffffffffffffff16815260200191505060405180910390f35b6000600160009054906101000a900473ffffffffffffffffffffffffffffffffffffffff1673ffffffffffffffffffffffffffffffffffffffff166370a08231306040518263ffffffff1660e01b8152600401808273ffffffffffffffffffffffffffffffffffffffff16815260200191505060206040518083038186803b158015610ec757600080fd5b505afa158015610edb573d6000803e3d6000fd5b505050506040513d6020811015610ef157600080fd5b8101908080519060200190929190505050905090565b6060610f4983836040518060400160405280601e81526020017f416464726573733a206c6f772d6c6576656c2063616c6c206661696c65640000815250612b09565b905092915050565b6000610f9383836040518060400160405280601e81526020017f536166654d6174683a207375627472616374696f6e206f766572666c6f770000815250612b21565b905092915050565b600080828401905083811015611019576040517f08c379a000000000000000000000000000000000000000000000000000000000815260040180806020018281038252601b8152602001807f536166654d6174683a206164646974696f6e206f766572666c6f77000000000081525060200191505060405180910390fd5b8091505092915050565b600060028081111561103157fe5b600960009054906101000a900460ff16600281111561104c57fe5b141561105c57600354905061108f565b600060085411801561107657506008546110746126b2565b105b15611084576000905061108f565b61108c611f40565b90505b90565b60006110ab600654600354612be190919063ffffffff16565b905090565b60006110e660016110d86110c261221f565b6110ca611b74565b612be190919063ffffffff16565b610f9b90919063ffffffff16565b905090565b3373ffffffffffffffffffffffffffffffffffffffff1660008054906101000a900473ffffffffffffffffffffffffffffffffffffffff1673ffffffffffffffffffffffffffffffffffffffff16146111ac576040517f08c379a00000000000000000000000000000000000000000000000000000000081526004018080602001828103825260208152602001807f4f776e61626c653a2063616c6c6572206973206e6f7420746865206f776e657281525060200191505060405180910390fd5b60001515600960039054906101000a900460ff16151514611235576040517f08c379a000000000000000000000000000000000000000000000000000000000815260040180806020018281038252601f8152602001807f43616e6e6f742063616e63656c20616363657074656420636f6e74726163740081525060200191505060405180910390fd5b611290611240611f17565b611248610e3c565b600160009054906101000a900473ffffffffffffffffffffffffffffffffffffffff1673ffffffffffffffffffffffffffffffffffffffff16612c2b9092919063ffffffff16565b7f171f0bcbda3370351cea17f3b164bee87d77c2503b94abdf2720a814ebe7e9df60405160405180910390a1565b6000806112c9610e3c565b905060006112d561259f565b9050808211156112fb576112f28183610f5190919063ffffffff16565b92505050611302565b6000925050505b90565b600061131e600454600554610f5190919063ffffffff16565b905090565b600260009054906101000a900473ffffffffffffffffffffffffffffffffffffffff1673ffffffffffffffffffffffffffffffffffffffff163373ffffffffffffffffffffffffffffffffffffffff16146113e6576040517f08c379a00000000000000000000000000000000000000000000000000000000081526004018080602001828103825260058152602001807f216175746800000000000000000000000000000000000000000000000000000081525060200191505060405180910390fd5b6060600b60009054906101000a900473ffffffffffffffffffffffffffffffffffffffff1673ffffffffffffffffffffffffffffffffffffffff1663a34574666040518163ffffffff1660e01b815260040160006040518083038186803b15801561145057600080fd5b505afa158015611464573d6000803e3d6000fd5b505050506040513d6000823e3d601f19601f82011682018060405250602081101561148e57600080fd5b81019080805160405193929190846401000000008211156114ae57600080fd5b838201915060208201858111156114c457600080fd5b82518660208202830111640100000000821117156114e157600080fd5b8083526020830192505050908051906020019060200280838360005b838110156115185780820151818401526020810190506114fd565b50505050905001604052505050905060005b81518110156115c0576115b382828151811061154257fe5b60200260200101517fffffffffffffffffffffffffffffffffffffffffffffffffffffffffffffffff600160009054906101000a900473ffffffffffffffffffffffffffffffffffffffff1673ffffffffffffffffffffffffffffffffffffffff16612ccd9092919063ffffffff16565b808060010191505061152a565b507fb837fd51506ba3cc623a37c78ed22fd521f2f6e9f69a34d5c2a4a9474f27579360405160405180910390a150565b600960019054906101000a900460ff1681565b60055481565b600260009054906101000a900473ffffffffffffffffffffffffffffffffffffffff1681565b600960029054906101000a900460ff1681565b60035481565b600a5481565b600b60009054906101000a900473ffffffffffffffffffffffffffffffffffffffff1681565b600960039054906101000a900460ff1681565b6000806007541180156116a257506007546116a06126b2565b105b156116b0576000905061173e565b600160028111156116bd57fe5b600960009054906101000a900460ff1660028111156116d857fe5b1480156116e757506000600854115b80156116fb57506008546116f96126b2565b105b15611709576000905061173e565b6000611727600a54611719611f40565b610f5190919063ffffffff16565b905061173a611734610e3c565b82612e92565b9150505b90565b600260009054906101000a900473ffffffffffffffffffffffffffffffffffffffff1673ffffffffffffffffffffffffffffffffffffffff163373ffffffffffffffffffffffffffffffffffffffff1614611804576040517f08c379a00000000000000000000000000000000000000000000000000000000081526004018080602001828103825260058152602001807f216175746800000000000000000000000000000000000000000000000000000081525060200191505060405180910390fd5b6060600b60009054906101000a900473ffffffffffffffffffffffffffffffffffffffff1673ffffffffffffffffffffffffffffffffffffffff1663a34574666040518163ffffffff1660e01b815260040160006040518083038186803b15801561186e57600080fd5b505afa158015611882573d6000803e3d6000fd5b505050506040513d6000823e3d601f19601f8201168201806040525060208110156118ac57600080fd5b81019080805160405193929190846401000000008211156118cc57600080fd5b838201915060208201858111156118e257600080fd5b82518660208202830111640100000000821117156118ff57600080fd5b8083526020830192505050908051906020019060200280838360005b8381101561193657808201518184015260208101905061191b565b50505050905001604052505050905060005b81518110156119bf576119b282828151811061196057fe5b60200260200101516000600160009054906101000a900473ffffffffffffffffffffffffffffffffffffffff1673ffffffffffffffffffffffffffffffffffffffff16612ccd9092919063ffffffff16565b8080600101915050611948565b507f6d317a20ba9d790014284bef285283cd61fde92e0f2711050f563a9d2cf4171160405160405180910390a150565b3373ffffffffffffffffffffffffffffffffffffffff1660008054906101000a900473ffffffffffffffffffffffffffffffffffffffff1673ffffffffffffffffffffffffffffffffffffffff1614611ab0576040517f08c379a00000000000000000000000000000000000000000000000000000000081526004018080602001828103825260208152602001807f4f776e61626c653a2063616c6c6572206973206e6f7420746865206f776e657281525060200191505060405180910390fd5b600073ffffffffffffffffffffffffffffffffffffffff1660008054906101000a900473ffffffffffffffffffffffffffffffffffffffff1673ffffffffffffffffffffffffffffffffffffffff167f8be0079c531659141344cd1fd0a4f28419497f9722a3daafe3b4186f6b6457e060405160405180910390a360008060006101000a81548173ffffffffffffffffffffffffffffffffffffffff021916908373ffffffffffffffffffffffffffffffffffffffff160217905550565b60045481565b600080611b7f6126b2565b90506004548111611b94576000915050611bad565b611ba960045482610f5190919063ffffffff16565b9150505b90565b60085481565b600260009054906101000a900473ffffffffffffffffffffffffffffffffffffffff1673ffffffffffffffffffffffffffffffffffffffff163373ffffffffffffffffffffffffffffffffffffffff1614611c79576040517f08c379a00000000000000000000000000000000000000000000000000000000081526004018080602001828103825260058152602001807f216175746800000000000000000000000000000000000000000000000000000081525060200191505060405180910390fd5b6000611c83611687565b905060008111611cfb576040517f08c379a000000000000000000000000000000000000000000000000000000000815260040180806020018281038252601e8152602001807f4e6f20617661696c61626c652072656c65617361626c6520616d6f756e74000081525060200191505060405180910390fd5b611d1081600a54610f9b90919063ffffffff16565b600a81905550611d85600260009054906101000a900473ffffffffffffffffffffffffffffffffffffffff1682600160009054906101000a900473ffffffffffffffffffffffffffffffffffffffff1673ffffffffffffffffffffffffffffffffffffffff16612c2b9092919063ffffffff16565b600260009054906101000a900473ffffffffffffffffffffffffffffffffffffffff1673ffffffffffffffffffffffffffffffffffffffff167fc7798891864187665ac6dd119286e44ec13f014527aeeb2b8eb3fd413df93179826040518082815260200191505060405180910390a250565b600960009054906101000a900460ff1681565b600260009054906101000a900473ffffffffffffffffffffffffffffffffffffffff1673ffffffffffffffffffffffffffffffffffffffff163373ffffffffffffffffffffffffffffffffffffffff1614611ece576040517f08c379a00000000000000000000000000000000000000000000000000000000081526004018080602001828103825260058152602001807f216175746800000000000000000000000000000000000000000000000000000081525060200191505060405180910390fd5b6001600960036101000a81548160ff0219169083151502179055507fbeb3313724453131feb0a765a03e6715bb720e0f973a31fcbafa2d2f048c188b60405160405180910390a1565b60008060009054906101000a900473ffffffffffffffffffffffffffffffffffffffff16905090565b600080611f4b6126b2565b9050600454811015611f61576000915050611f9b565b600554811115611f7657600354915050611f9b565b611f97611f81611092565b611f896128bd565b612eab90919063ffffffff16565b9150505b90565b60065481565b600260009054906101000a900473ffffffffffffffffffffffffffffffffffffffff1673ffffffffffffffffffffffffffffffffffffffff163373ffffffffffffffffffffffffffffffffffffffff1614612067576040517f08c379a00000000000000000000000000000000000000000000000000000000081526004018080602001828103825260058152602001807f216175746800000000000000000000000000000000000000000000000000000081525060200191505060405180910390fd5b600081116120dd576040517f08c379a00000000000000000000000000000000000000000000000000000000081526004018080602001828103825260158152602001807f416d6f756e742063616e6e6f74206265207a65726f000000000000000000000081525060200191505060405180910390fd5b806120e66112be565b101561213d576040517f08c379a0000000000000000000000000000000000000000000000000000000008152600401808060200182810382526024815260200180613d2a6024913960400191505060405180910390fd5b6121ac600260009054906101000a900473ffffffffffffffffffffffffffffffffffffffff1682600160009054906101000a900473ffffffffffffffffffffffffffffffffffffffff1673ffffffffffffffffffffffffffffffffffffffff16612c2b9092919063ffffffff16565b600260009054906101000a900473ffffffffffffffffffffffffffffffffffffffff1673ffffffffffffffffffffffffffffffffffffffff167f6352c5382c4a4578e712449ca65e83cdb392d045dfcf1cad9615189db2da244b826040518082815260200191505060405180910390a250565b600061223d60065461222f611305565b612be190919063ffffffff16565b905090565b3373ffffffffffffffffffffffffffffffffffffffff1660008054906101000a900473ffffffffffffffffffffffffffffffffffffffff1673ffffffffffffffffffffffffffffffffffffffff1614612303576040517f08c379a00000000000000000000000000000000000000000000000000000000081526004018080602001828103825260208152602001807f4f776e61626c653a2063616c6c6572206973206e6f7420746865206f776e657281525060200191505060405180910390fd5b6001600281111561231057fe5b600960009054906101000a900460ff16600281111561232b57fe5b1461239e576040517f08c379a00000000000000000000000000000000000000000000000000000000081526004018080602001828103825260198152602001807f436f6e7472616374206973206e6f6e2d7265766f6361626c650000000000000081525060200191505060405180910390fd5b60001515600960019054906101000a900460ff16151514612427576040517f08c379a000000000000000000000000000000000000000000000000000000000815260040180806020018281038252600f8152602001807f416c7265616479207265766f6b6564000000000000000000000000000000000081525060200191505060405180910390fd5b6000612445612434611023565b600354610f5190919063ffffffff16565b9050600081116124bd576040517f08c379a000000000000000000000000000000000000000000000000000000000815260040180806020018281038252601c8152602001807f4e6f20617661696c61626c6520756e76657374656420616d6f756e740000000081525060200191505060405180910390fd5b6001600960016101000a81548160ff02191690831515021790555061252c6124e3611f17565b82600160009054906101000a900473ffffffffffffffffffffffffffffffffffffffff1673ffffffffffffffffffffffffffffffffffffffff16612c2b9092919063ffffffff16565b600260009054906101000a900473ffffffffffffffffffffffffffffffffffffffff1673ffffffffffffffffffffffffffffffffffffffff167fb73c49a3a37a7aca291ba0ceaa41657012def406106a7fc386888f0f66e941cf826040518082815260200191505060405180910390a250565b60006125b8600a54600354610f5190919063ffffffff16565b905090565b6125cf8a8a8a8a8a8a8a8a8a8a612f31565b6125d88b6135b2565b5050505050505050505050565b3373ffffffffffffffffffffffffffffffffffffffff1660008054906101000a900473ffffffffffffffffffffffffffffffffffffffff1673ffffffffffffffffffffffffffffffffffffffff16146126a6576040517f08c379a00000000000000000000000000000000000000000000000000000000081526004018080602001828103825260208152602001807f4f776e61626c653a2063616c6c6572206973206e6f7420746865206f776e657281525060200191505060405180910390fd5b6126af816135b2565b50565b600042905090565b600260009054906101000a900473ffffffffffffffffffffffffffffffffffffffff1673ffffffffffffffffffffffffffffffffffffffff163373ffffffffffffffffffffffffffffffffffffffff161461277d576040517f08c379a00000000000000000000000000000000000000000000000000000000081526004018080602001828103825260058152602001807f216175746800000000000000000000000000000000000000000000000000000081525060200191505060405180910390fd5b600073ffffffffffffffffffffffffffffffffffffffff168173ffffffffffffffffffffffffffffffffffffffff161415612820576040517f08c379a00000000000000000000000000000000000000000000000000000000081526004018080602001828103825260118152602001807f456d7074792062656e656669636961727900000000000000000000000000000081525060200191505060405180910390fd5b80600260006101000a81548173ffffffffffffffffffffffffffffffffffffffff021916908373ffffffffffffffffffffffffffffffffffffffff1602179055507f373c72efabe4ef3e552ff77838be729f3bc3d8c586df0012902d1baa2377fa1d81604051808273ffffffffffffffffffffffffffffffffffffffff16815260200191505060405180910390a150565b600c5481565b60075481565b60006128da60016128cc6110b0565b610f5190919063ffffffff16565b905090565b3373ffffffffffffffffffffffffffffffffffffffff1660008054906101000a900473ffffffffffffffffffffffffffffffffffffffff1673ffffffffffffffffffffffffffffffffffffffff16146129a0576040517f08c379a00000000000000000000000000000000000000000000000000000000081526004018080602001828103825260208152602001807f4f776e61626c653a2063616c6c6572206973206e6f7420746865206f776e657281525060200191505060405180910390fd5b600073ffffffffffffffffffffffffffffffffffffffff168173ffffffffffffffffffffffffffffffffffffffff161415612a26576040517f08c379a0000000000000000000000000000000000000000000000000000000008152600401808060200182810382526026815260200180613c946026913960400191505060405180910390fd5b8073ffffffffffffffffffffffffffffffffffffffff1660008054906101000a900473ffffffffffffffffffffffffffffffffffffffff1673ffffffffffffffffffffffffffffffffffffffff167f8be0079c531659141344cd1fd0a4f28419497f9722a3daafe3b4186f6b6457e060405160405180910390a3806000806101000a81548173ffffffffffffffffffffffffffffffffffffffff021916908373ffffffffffffffffffffffffffffffffffffffff16021790555050565b600160009054906101000a900473ffffffffffffffffffffffffffffffffffffffff1681565b6060612b188484600085613796565b90509392505050565b6000838311158290612bce576040517f08c379a00000000000000000000000000000000000000000000000000000000081526004018080602001828103825283818151815260200191508051906020019080838360005b83811015612b93578082015181840152602081019050612b78565b50505050905090810190601f168015612bc05780820380516001836020036101000a031916815260200191505b509250505060405180910390fd5b5060008385039050809150509392505050565b6000612c2383836040518060400160405280601a81526020017f536166654d6174683a206469766973696f6e206279207a65726f00000000000081525061393f565b905092915050565b612cc88363a9059cbb60e01b8484604051602401808373ffffffffffffffffffffffffffffffffffffffff16815260200182815260200192505050604051602081830303815290604052907bffffffffffffffffffffffffffffffffffffffffffffffffffffffff19166020820180517bffffffffffffffffffffffffffffffffffffffffffffffffffffffff8381831617835250505050613a05565b505050565b6000811480612d9b575060008373ffffffffffffffffffffffffffffffffffffffff1663dd62ed3e30856040518363ffffffff1660e01b8152600401808373ffffffffffffffffffffffffffffffffffffffff1681526020018273ffffffffffffffffffffffffffffffffffffffff1681526020019250505060206040518083038186803b158015612d5e57600080fd5b505afa158015612d72573d6000803e3d6000fd5b505050506040513d6020811015612d8857600080fd5b8101908080519060200190929190505050145b612df0576040517f08c379a0000000000000000000000000000000000000000000000000000000008152600401808060200182810382526036815260200180613da26036913960400191505060405180910390fd5b612e8d8363095ea7b360e01b8484604051602401808373ffffffffffffffffffffffffffffffffffffffff16815260200182815260200192505050604051602081830303815290604052907bffffffffffffffffffffffffffffffffffffffffffffffffffffffff19166020820180517bffffffffffffffffffffffffffffffffffffffffffffffffffffffff8381831617835250505050613a05565b505050565b6000818310612ea15781612ea3565b825b905092915050565b600080831415612ebe5760009050612f2b565b6000828402905082848281612ecf57fe5b0414612f26576040517f08c379a0000000000000000000000000000000000000000000000000000000008152600401808060200182810382526021815260200180613d096021913960400191505060405180910390fd5b809150505b92915050565b600960029054906101000a900460ff1615612fb4576040517f08c379a00000000000000000000000000000000000000000000000000000000081526004018080602001828103825260138152602001807f416c726561647920696e697469616c697a65640000000000000000000000000081525060200191505060405180910390fd5b600073ffffffffffffffffffffffffffffffffffffffff168a73ffffffffffffffffffffffffffffffffffffffff161415613057576040517f08c379a00000000000000000000000000000000000000000000000000000000081526004018080602001828103825260148152602001807f4f776e65722063616e6e6f74206265207a65726f00000000000000000000000081525060200191505060405180910390fd5b600073ffffffffffffffffffffffffffffffffffffffff168973ffffffffffffffffffffffffffffffffffffffff1614156130fa576040517f08c379a000000000000000000000000000000000000000000000000000000000815260040180806020018281038252601a8152602001807f42656e65666963696172792063616e6e6f74206265207a65726f00000000000081525060200191505060405180910390fd5b600073ffffffffffffffffffffffffffffffffffffffff168873ffffffffffffffffffffffffffffffffffffffff16141561319d576040517f08c379a00000000000000000000000000000000000000000000000000000000081526004018080602001828103825260148152602001807f546f6b656e2063616e6e6f74206265207a65726f00000000000000000000000081525060200191505060405180910390fd5b60008711613213576040517f08c379a000000000000000000000000000000000000000000000000000000000815260040180806020018281038252601d8152602001807f4d616e6167656420746f6b656e732063616e6e6f74206265207a65726f00000081525060200191505060405180910390fd5b600086141561328a576040517f08c379a00000000000000000000000000000000000000000000000000000000081526004018080602001828103825260168152602001807f53746172742074696d65206d757374206265207365740000000000000000000081525060200191505060405180910390fd5b8486106132ff576040517f08c379a00000000000000000000000000000000000000000000000000000000081526004018080602001828103825260158152602001807f53746172742074696d65203e20656e642074696d65000000000000000000000081525060200191505060405180910390fd5b6001841015613376576040517f08c379a000000000000000000000000000000000000000000000000000000000815260040180806020018281038252601f8152602001807f506572696f64732063616e6e6f742062652062656c6f77206d696e696d756d0081525060200191505060405180910390fd5b6000600281111561338357fe5b81600281111561338f57fe5b1415613403576040517f08c379a000000000000000000000000000000000000000000000000000000000815260040180806020018281038252601e8152602001807f4d757374207365742061207265766f636162696c697479206f7074696f6e000081525060200191505060405180910390fd5b84831061345b576040517f08c379a000000000000000000000000000000000000000000000000000000000815260040180806020018281038252602a815260200180613d4e602a913960400191505060405180910390fd5b8482106134b3576040517f08c379a0000000000000000000000000000000000000000000000000000000008152600401808060200182810382526022815260200180613c726022913960400191505060405180910390fd5b6001600960026101000a81548160ff0219169083151502179055506134d78a613af4565b88600260006101000a81548173ffffffffffffffffffffffffffffffffffffffff021916908373ffffffffffffffffffffffffffffffffffffffff16021790555087600160006101000a81548173ffffffffffffffffffffffffffffffffffffffff021916908373ffffffffffffffffffffffffffffffffffffffff16021790555086600381905550856004819055508460058190555083600681905550826007819055508160088190555080600960006101000a81548160ff021916908360028111156135a157fe5b021790555050505050505050505050565b600073ffffffffffffffffffffffffffffffffffffffff168173ffffffffffffffffffffffffffffffffffffffff161415613655576040517f08c379a00000000000000000000000000000000000000000000000000000000081526004018080602001828103825260178152602001807f4d616e616765722063616e6e6f7420626520656d70747900000000000000000081525060200191505060405180910390fd5b61365e81613b92565b6136d0576040517f08c379a000000000000000000000000000000000000000000000000000000000815260040180806020018281038252601a8152602001807f4d616e61676572206d757374206265206120636f6e747261637400000000000081525060200191505060405180910390fd5b6000600b60009054906101000a900473ffffffffffffffffffffffffffffffffffffffff16905081600b60006101000a81548173ffffffffffffffffffffffffffffffffffffffff021916908373ffffffffffffffffffffffffffffffffffffffff1602179055508173ffffffffffffffffffffffffffffffffffffffff168173ffffffffffffffffffffffffffffffffffffffff167fdac3632743b879638fd2d51c4d3c1dd796615b4758a55b50b0c19b971ba9fbc760405160405180910390a35050565b6060824710156137f1576040517f08c379a0000000000000000000000000000000000000000000000000000000008152600401808060200182810382526026815260200180613cba6026913960400191505060405180910390fd5b6137fa85613b92565b61386c576040517f08c379a000000000000000000000000000000000000000000000000000000000815260040180806020018281038252601d8152602001807f416464726573733a2063616c6c20746f206e6f6e2d636f6e747261637400000081525060200191505060405180910390fd5b600060608673ffffffffffffffffffffffffffffffffffffffff1685876040518082805190602001908083835b602083106138bc5780518252602082019150602081019050602083039250613899565b6001836020036101000a03801982511681845116808217855250505050505090500191505060006040518083038185875af1925050503d806000811461391e576040519150601f19603f3d011682016040523d82523d6000602084013e613923565b606091505b5091509150613933828286613ba5565b92505050949350505050565b600080831182906139eb576040517f08c379a00000000000000000000000000000000000000000000000000000000081526004018080602001828103825283818151815260200191508051906020019080838360005b838110156139b0578082015181840152602081019050613995565b50505050905090810190601f1680156139dd5780820380516001836020036101000a031916815260200191505b509250505060405180910390fd5b5060008385816139f757fe5b049050809150509392505050565b6060613a67826040518060400160405280602081526020017f5361666545524332303a206c6f772d6c6576656c2063616c6c206661696c65648152508573ffffffffffffffffffffffffffffffffffffffff16612b099092919063ffffffff16565b9050600081511115613aef57808060200190516020811015613a8857600080fd5b8101908080519060200190929190505050613aee576040517f08c379a000000000000000000000000000000000000000000000000000000000815260040180806020018281038252602a815260200180613d78602a913960400191505060405180910390fd5b5b505050565b806000806101000a81548173ffffffffffffffffffffffffffffffffffffffff021916908373ffffffffffffffffffffffffffffffffffffffff1602179055508073ffffffffffffffffffffffffffffffffffffffff16600073ffffffffffffffffffffffffffffffffffffffff167f8be0079c531659141344cd1fd0a4f28419497f9722a3daafe3b4186f6b6457e060405160405180910390a350565b600080823b905060008111915050919050565b60608315613bb557829050613c6a565b600083511115613bc85782518084602001fd5b816040517f08c379a00000000000000000000000000000000000000000000000000000000081526004018080602001828103825283818151815260200191508051906020019080838360005b83811015613c2f578082015181840152602081019050613c14565b50505050905090810190601f168015613c5c5780820380516001836020036101000a031916815260200191505b509250505060405180910390fd5b939250505056fe436c6966662074696d65206d757374206265206265666f726520656e642074696d654f776e61626c653a206e6577206f776e657220697320746865207a65726f2061646472657373416464726573733a20696e73756666696369656e742062616c616e636520666f722063616c6c43616e6e6f7420757365206d6f726520746f6b656e73207468616e2076657374656420616d6f756e74536166654d6174683a206d756c7469706c69636174696f6e206f766572666c6f77416d6f756e7420726571756573746564203e20737572706c757320617661696c61626c6552656c656173652073746172742074696d65206d757374206265206265666f726520656e642074696d655361666545524332303a204552433230206f7065726174696f6e20646964206e6f7420737563636565645361666545524332303a20617070726f76652066726f6d206e6f6e2d7a65726f20746f206e6f6e2d7a65726f20616c6c6f77616e6365a264697066735822122055d879eff60452f97d78df74381d2d2d8adea6b12d7c6e9b85a436b54033072564736f6c63430007030033",
  "devdoc": {
    "kind": "dev",
    "methods": {
      "acceptLock()": {
        "details": "Can only be called by the beneficiary"
      },
      "amountPerPeriod()": {
        "returns": {
          "_0": "Amount of tokens available after each period"
        }
      },
      "approveProtocol()": {
        "details": "Approves all token destinations registered in the manager to pull tokens"
      },
      "availableAmount()": {
        "details": "Implements the step-by-step schedule based on periods for available tokens",
        "returns": {
          "_0": "Amount of tokens available according to the schedule"
        }
      },
      "cancelLock()": {
        "details": "Can only be called by the owner"
      },
      "changeBeneficiary(address)": {
        "details": "Can only be called by the beneficiary",
        "params": {
          "_newBeneficiary": "Address of the new beneficiary address"
        }
      },
      "currentBalance()": {
        "returns": {
          "_0": "Tokens held in the contract"
        }
      },
      "currentPeriod()": {
        "returns": {
          "_0": "A number that represents the current period"
        }
      },
      "currentTime()": {
        "returns": {
          "_0": "Current block timestamp"
        }
      },
      "duration()": {
        "returns": {
          "_0": "Amount of seconds from contract startTime to endTime"
        }
      },
      "owner()": {
        "details": "Returns the address of the current owner."
      },
      "passedPeriods()": {
        "returns": {
          "_0": "A number of periods that passed since the schedule started"
        }
      },
      "periodDuration()": {
        "returns": {
          "_0": "Duration of each period in seconds"
        }
      },
      "releasableAmount()": {
        "details": "Considers the schedule and takes into account already released tokens",
        "returns": {
          "_0": "Amount of tokens ready to be released"
        }
      },
      "release()": {
        "details": "All available releasable tokens are transferred to beneficiary"
      },
      "renounceOwnership()": {
        "details": "Leaves the contract without owner. It will not be possible to call `onlyOwner` functions anymore. Can only be called by the current owner. NOTE: Renouncing ownership will leave the contract without an owner, thereby removing any functionality that is only available to the owner."
      },
      "revoke()": {
        "details": "Vesting schedule is always calculated based on managed tokens"
      },
      "revokeProtocol()": {
        "details": "Revokes approval to all token destinations in the manager to pull tokens"
      },
      "setManager(address)": {
        "params": {
          "_newManager": "Address of the new manager"
        }
      },
      "sinceStartTime()": {
        "details": "Returns zero if called before conctract starTime",
        "returns": {
          "_0": "Seconds elapsed from contract startTime"
        }
      },
      "surplusAmount()": {
        "details": "All funds over outstanding amount is considered surplus that can be withdrawn by beneficiary",
        "returns": {
          "_0": "Amount of tokens considered as surplus"
        }
      },
      "totalOutstandingAmount()": {
        "details": "Does not consider schedule but just global amounts tracked",
        "returns": {
          "_0": "Amount of outstanding tokens for the lifetime of the contract"
        }
      },
      "transferOwnership(address)": {
        "details": "Transfers ownership of the contract to a new account (`newOwner`). Can only be called by the current owner."
      },
      "vestedAmount()": {
        "details": "Similar to available amount, but is fully vested when contract is non-revocable",
        "returns": {
          "_0": "Amount of tokens already vested"
        }
      },
      "withdrawSurplus(uint256)": {
        "details": "Tokens in the contract over outstanding amount are considered as surplus",
        "params": {
          "_amount": "Amount of tokens to withdraw"
        }
      }
    },
    "title": "GraphTokenLockWallet",
    "version": 1
  },
  "userdoc": {
    "kind": "user",
    "methods": {
      "acceptLock()": {
        "notice": "Beneficiary accepts the lock, the owner cannot retrieve back the tokens"
      },
      "amountPerPeriod()": {
        "notice": "Returns amount available to be released after each period according to schedule"
      },
      "approveProtocol()": {
        "notice": "Approves protocol access of the tokens managed by this contract"
      },
      "availableAmount()": {
        "notice": "Gets the currently available token according to the schedule"
      },
      "cancelLock()": {
        "notice": "Owner cancel the lock and return the balance in the contract"
      },
      "changeBeneficiary(address)": {
        "notice": "Change the beneficiary of funds managed by the contract"
      },
      "currentBalance()": {
        "notice": "Returns the amount of tokens currently held by the contract"
      },
      "currentPeriod()": {
        "notice": "Gets the current period based on the schedule"
      },
      "currentTime()": {
        "notice": "Returns the current block timestamp"
      },
      "duration()": {
        "notice": "Gets duration of contract from start to end in seconds"
      },
      "passedPeriods()": {
        "notice": "Gets the number of periods that passed since the first period"
      },
      "periodDuration()": {
        "notice": "Returns the duration of each period in seconds"
      },
      "releasableAmount()": {
        "notice": "Gets tokens currently available for release"
      },
      "release()": {
        "notice": "Releases tokens based on the configured schedule"
      },
      "revoke()": {
        "notice": "Revokes a vesting schedule and return the unvested tokens to the owner"
      },
      "revokeProtocol()": {
        "notice": "Revokes protocol access of the tokens managed by this contract"
      },
      "setManager(address)": {
        "notice": "Sets a new manager for this contract"
      },
      "sinceStartTime()": {
        "notice": "Gets time elapsed since the start of the contract"
      },
      "surplusAmount()": {
        "notice": "Gets surplus amount in the contract based on outstanding amount to release"
      },
      "totalOutstandingAmount()": {
        "notice": "Gets the outstanding amount yet to be released based on the whole contract lifetime"
      },
      "vestedAmount()": {
        "notice": "Gets the amount of currently vested tokens"
      },
      "withdrawSurplus(uint256)": {
        "notice": "Withdraws surplus, unmanaged tokens from the contract"
      }
    },
    "notice": "This contract is built on top of the base GraphTokenLock functionality. It allows wallet beneficiaries to use the deposited funds to perform specific function calls on specific contracts. The idea is that supporters with locked tokens can participate in the protocol but disallow any release before the vesting/lock schedule. The beneficiary can issue authorized function calls to this contract that will get forwarded to a target contract. A target contract is any of our protocol contracts. The function calls allowed are queried to the GraphTokenLockManager, this way the same configuration can be shared for all the created lock wallet contracts. NOTE: Contracts used as target must have its function signatures checked to avoid collisions with any of this contract functions. Beneficiaries need to approve the use of the tokens to the protocol contracts. For convenience the maximum amount of tokens is authorized.",
    "version": 1
  },
  "storageLayout": {
    "storage": [
      {
        "astId": 4448,
        "contract": "contracts/GraphTokenLockWallet.sol:GraphTokenLockWallet",
        "label": "_owner",
        "offset": 0,
        "slot": "0",
        "type": "t_address"
      },
      {
        "astId": 2351,
        "contract": "contracts/GraphTokenLockWallet.sol:GraphTokenLockWallet",
        "label": "token",
        "offset": 0,
        "slot": "1",
        "type": "t_contract(IERC20)908"
      },
      {
        "astId": 2353,
        "contract": "contracts/GraphTokenLockWallet.sol:GraphTokenLockWallet",
        "label": "beneficiary",
        "offset": 0,
        "slot": "2",
        "type": "t_address"
      },
      {
        "astId": 2355,
        "contract": "contracts/GraphTokenLockWallet.sol:GraphTokenLockWallet",
        "label": "managedAmount",
        "offset": 0,
        "slot": "3",
        "type": "t_uint256"
      },
      {
        "astId": 2357,
        "contract": "contracts/GraphTokenLockWallet.sol:GraphTokenLockWallet",
        "label": "startTime",
        "offset": 0,
        "slot": "4",
        "type": "t_uint256"
      },
      {
        "astId": 2359,
        "contract": "contracts/GraphTokenLockWallet.sol:GraphTokenLockWallet",
        "label": "endTime",
        "offset": 0,
        "slot": "5",
        "type": "t_uint256"
      },
      {
        "astId": 2361,
        "contract": "contracts/GraphTokenLockWallet.sol:GraphTokenLockWallet",
        "label": "periods",
        "offset": 0,
        "slot": "6",
        "type": "t_uint256"
      },
      {
        "astId": 2363,
        "contract": "contracts/GraphTokenLockWallet.sol:GraphTokenLockWallet",
        "label": "releaseStartTime",
        "offset": 0,
        "slot": "7",
        "type": "t_uint256"
      },
      {
        "astId": 2365,
        "contract": "contracts/GraphTokenLockWallet.sol:GraphTokenLockWallet",
        "label": "vestingCliffTime",
        "offset": 0,
        "slot": "8",
        "type": "t_uint256"
      },
      {
        "astId": 2367,
        "contract": "contracts/GraphTokenLockWallet.sol:GraphTokenLockWallet",
        "label": "revocable",
        "offset": 0,
        "slot": "9",
        "type": "t_enum(Revocability)4125"
      },
      {
        "astId": 2369,
        "contract": "contracts/GraphTokenLockWallet.sol:GraphTokenLockWallet",
        "label": "isRevoked",
        "offset": 1,
        "slot": "9",
        "type": "t_bool"
      },
      {
        "astId": 2371,
        "contract": "contracts/GraphTokenLockWallet.sol:GraphTokenLockWallet",
        "label": "isInitialized",
        "offset": 2,
        "slot": "9",
        "type": "t_bool"
      },
      {
        "astId": 2373,
        "contract": "contracts/GraphTokenLockWallet.sol:GraphTokenLockWallet",
        "label": "isAccepted",
        "offset": 3,
        "slot": "9",
        "type": "t_bool"
      },
      {
        "astId": 2375,
        "contract": "contracts/GraphTokenLockWallet.sol:GraphTokenLockWallet",
        "label": "releasedAmount",
        "offset": 0,
        "slot": "10",
        "type": "t_uint256"
      },
      {
        "astId": 3785,
        "contract": "contracts/GraphTokenLockWallet.sol:GraphTokenLockWallet",
        "label": "manager",
        "offset": 0,
        "slot": "11",
        "type": "t_contract(IGraphTokenLockManager)4307"
      },
      {
        "astId": 3787,
        "contract": "contracts/GraphTokenLockWallet.sol:GraphTokenLockWallet",
        "label": "usedAmount",
        "offset": 0,
        "slot": "12",
        "type": "t_uint256"
      }
    ],
    "types": {
      "t_address": {
        "encoding": "inplace",
        "label": "address",
        "numberOfBytes": "20"
      },
      "t_bool": {
        "encoding": "inplace",
        "label": "bool",
        "numberOfBytes": "1"
      },
      "t_contract(IERC20)908": {
        "encoding": "inplace",
        "label": "contract IERC20",
        "numberOfBytes": "20"
      },
      "t_contract(IGraphTokenLockManager)4307": {
        "encoding": "inplace",
        "label": "contract IGraphTokenLockManager",
        "numberOfBytes": "20"
      },
      "t_enum(Revocability)4125": {
        "encoding": "inplace",
        "label": "enum IGraphTokenLock.Revocability",
        "numberOfBytes": "1"
      },
      "t_uint256": {
        "encoding": "inplace",
        "label": "uint256",
        "numberOfBytes": "32"
      }
    }
  }
}