{
  "address": "0xd3A52F21b4EA66eAf0270C58799d339884be7823",
  "abi": [
    {
      "anonymous": false,
      "inputs": [
        {
          "indexed": true,
          "internalType": "address",
          "name": "_oldManager",
          "type": "address"
        },
        {
          "indexed": true,
          "internalType": "address",
          "name": "_newManager",
          "type": "address"
        }
      ],
      "name": "ManagerUpdated",
      "type": "event"
    },
    {
      "anonymous": false,
      "inputs": [
        {
          "indexed": true,
          "internalType": "address",
          "name": "previousOwner",
          "type": "address"
        },
        {
          "indexed": true,
          "internalType": "address",
          "name": "newOwner",
          "type": "address"
        }
      ],
      "name": "OwnershipTransferred",
      "type": "event"
    },
    {
      "anonymous": false,
      "inputs": [],
      "name": "TokenDestinationsApproved",
      "type": "event"
    },
    {
      "anonymous": false,
      "inputs": [],
      "name": "TokenDestinationsRevoked",
      "type": "event"
    },
    {
      "anonymous": false,
      "inputs": [
        {
          "indexed": true,
          "internalType": "address",
          "name": "beneficiary",
          "type": "address"
        },
        {
          "indexed": false,
          "internalType": "uint256",
          "name": "amount",
          "type": "uint256"
        }
      ],
      "name": "TokensReleased",
      "type": "event"
    },
    {
      "anonymous": false,
      "inputs": [
        {
          "indexed": true,
          "internalType": "address",
          "name": "beneficiary",
          "type": "address"
        },
        {
          "indexed": false,
          "internalType": "uint256",
          "name": "amount",
          "type": "uint256"
        }
      ],
      "name": "TokensRevoked",
      "type": "event"
    },
    {
      "anonymous": false,
      "inputs": [
        {
          "indexed": true,
          "internalType": "address",
          "name": "beneficiary",
          "type": "address"
        },
        {
          "indexed": false,
          "internalType": "uint256",
          "name": "amount",
          "type": "uint256"
        }
      ],
      "name": "TokensWithdrawn",
      "type": "event"
    },
    {
      "stateMutability": "payable",
      "type": "fallback"
    },
    {
      "inputs": [],
      "name": "amountPerPeriod",
      "outputs": [
        {
          "internalType": "uint256",
          "name": "",
          "type": "uint256"
        }
      ],
      "stateMutability": "view",
      "type": "function"
    },
    {
      "inputs": [],
      "name": "approveProtocol",
      "outputs": [],
      "stateMutability": "nonpayable",
      "type": "function"
    },
    {
      "inputs": [],
      "name": "availableAmount",
      "outputs": [
        {
          "internalType": "uint256",
          "name": "",
          "type": "uint256"
        }
      ],
      "stateMutability": "view",
      "type": "function"
    },
    {
      "inputs": [],
      "name": "beneficiary",
      "outputs": [
        {
          "internalType": "address",
          "name": "",
          "type": "address"
        }
      ],
      "stateMutability": "view",
      "type": "function"
    },
    {
      "inputs": [],
      "name": "currentBalance",
      "outputs": [
        {
          "internalType": "uint256",
          "name": "",
          "type": "uint256"
        }
      ],
      "stateMutability": "view",
      "type": "function"
    },
    {
      "inputs": [],
      "name": "currentPeriod",
      "outputs": [
        {
          "internalType": "uint256",
          "name": "",
          "type": "uint256"
        }
      ],
      "stateMutability": "view",
      "type": "function"
    },
    {
      "inputs": [],
      "name": "currentTime",
      "outputs": [
        {
          "internalType": "uint256",
          "name": "",
          "type": "uint256"
        }
      ],
      "stateMutability": "view",
      "type": "function"
    },
    {
      "inputs": [],
      "name": "duration",
      "outputs": [
        {
          "internalType": "uint256",
          "name": "",
          "type": "uint256"
        }
      ],
      "stateMutability": "view",
      "type": "function"
    },
    {
      "inputs": [],
      "name": "endTime",
      "outputs": [
        {
          "internalType": "uint256",
          "name": "",
          "type": "uint256"
        }
      ],
      "stateMutability": "view",
      "type": "function"
    },
    {
      "inputs": [
        {
          "internalType": "address",
          "name": "_manager",
          "type": "address"
        },
        {
          "internalType": "address",
          "name": "_owner",
          "type": "address"
        },
        {
          "internalType": "address",
          "name": "_beneficiary",
          "type": "address"
        },
        {
          "internalType": "address",
          "name": "_token",
          "type": "address"
        },
        {
          "internalType": "uint256",
          "name": "_managedAmount",
          "type": "uint256"
        },
        {
          "internalType": "uint256",
          "name": "_startTime",
          "type": "uint256"
        },
        {
          "internalType": "uint256",
          "name": "_endTime",
          "type": "uint256"
        },
        {
          "internalType": "uint256",
          "name": "_periods",
          "type": "uint256"
        },
        {
          "internalType": "uint256",
          "name": "_releaseStartTime",
          "type": "uint256"
        },
        {
          "internalType": "uint256",
          "name": "_vestingCliffTime",
          "type": "uint256"
        },
        {
          "internalType": "enum IGraphTokenLock.Revocability",
          "name": "_revocable",
          "type": "uint8"
        }
      ],
      "name": "initialize",
      "outputs": [],
      "stateMutability": "nonpayable",
      "type": "function"
    },
    {
      "inputs": [],
      "name": "isInitialized",
      "outputs": [
        {
          "internalType": "bool",
          "name": "",
          "type": "bool"
        }
      ],
      "stateMutability": "view",
      "type": "function"
    },
    {
      "inputs": [],
      "name": "isRevoked",
      "outputs": [
        {
          "internalType": "bool",
          "name": "",
          "type": "bool"
        }
      ],
      "stateMutability": "view",
      "type": "function"
    },
    {
      "inputs": [],
      "name": "managedAmount",
      "outputs": [
        {
          "internalType": "uint256",
          "name": "",
          "type": "uint256"
        }
      ],
      "stateMutability": "view",
      "type": "function"
    },
    {
      "inputs": [],
      "name": "manager",
      "outputs": [
        {
          "internalType": "contract IGraphTokenLockManager",
          "name": "",
          "type": "address"
        }
      ],
      "stateMutability": "view",
      "type": "function"
    },
    {
      "inputs": [],
      "name": "owner",
      "outputs": [
        {
          "internalType": "address",
          "name": "",
          "type": "address"
        }
      ],
      "stateMutability": "view",
      "type": "function"
    },
    {
      "inputs": [],
      "name": "passedPeriods",
      "outputs": [
        {
          "internalType": "uint256",
          "name": "",
          "type": "uint256"
        }
      ],
      "stateMutability": "view",
      "type": "function"
    },
    {
      "inputs": [],
      "name": "periodDuration",
      "outputs": [
        {
          "internalType": "uint256",
          "name": "",
          "type": "uint256"
        }
      ],
      "stateMutability": "view",
      "type": "function"
    },
    {
      "inputs": [],
      "name": "periods",
      "outputs": [
        {
          "internalType": "uint256",
          "name": "",
          "type": "uint256"
        }
      ],
      "stateMutability": "view",
      "type": "function"
    },
    {
      "inputs": [],
      "name": "releasableAmount",
      "outputs": [
        {
          "internalType": "uint256",
          "name": "",
          "type": "uint256"
        }
      ],
      "stateMutability": "view",
      "type": "function"
    },
    {
      "inputs": [],
      "name": "release",
      "outputs": [],
      "stateMutability": "nonpayable",
      "type": "function"
    },
    {
      "inputs": [],
      "name": "releaseStartTime",
      "outputs": [
        {
          "internalType": "uint256",
          "name": "",
          "type": "uint256"
        }
      ],
      "stateMutability": "view",
      "type": "function"
    },
    {
      "inputs": [],
      "name": "releasedAmount",
      "outputs": [
        {
          "internalType": "uint256",
          "name": "",
          "type": "uint256"
        }
      ],
      "stateMutability": "view",
      "type": "function"
    },
    {
      "inputs": [],
      "name": "renounceOwnership",
      "outputs": [],
      "stateMutability": "nonpayable",
      "type": "function"
    },
    {
      "inputs": [],
      "name": "revocable",
      "outputs": [
        {
          "internalType": "enum IGraphTokenLock.Revocability",
          "name": "",
          "type": "uint8"
        }
      ],
      "stateMutability": "view",
      "type": "function"
    },
    {
      "inputs": [],
      "name": "revoke",
      "outputs": [],
      "stateMutability": "nonpayable",
      "type": "function"
    },
    {
      "inputs": [],
      "name": "revokeProtocol",
      "outputs": [],
      "stateMutability": "nonpayable",
      "type": "function"
    },
    {
      "inputs": [
        {
          "internalType": "address",
          "name": "_newManager",
          "type": "address"
        }
      ],
      "name": "setManager",
      "outputs": [],
      "stateMutability": "nonpayable",
      "type": "function"
    },
    {
      "inputs": [],
      "name": "sinceStartTime",
      "outputs": [
        {
          "internalType": "uint256",
          "name": "",
          "type": "uint256"
        }
      ],
      "stateMutability": "view",
      "type": "function"
    },
    {
      "inputs": [],
      "name": "startTime",
      "outputs": [
        {
          "internalType": "uint256",
          "name": "",
          "type": "uint256"
        }
      ],
      "stateMutability": "view",
      "type": "function"
    },
    {
      "inputs": [],
      "name": "surplusAmount",
      "outputs": [
        {
          "internalType": "uint256",
          "name": "",
          "type": "uint256"
        }
      ],
      "stateMutability": "view",
      "type": "function"
    },
    {
      "inputs": [],
      "name": "token",
      "outputs": [
        {
          "internalType": "contract IERC20",
          "name": "",
          "type": "address"
        }
      ],
      "stateMutability": "view",
      "type": "function"
    },
    {
      "inputs": [],
      "name": "totalOutstandingAmount",
      "outputs": [
        {
          "internalType": "uint256",
          "name": "",
          "type": "uint256"
        }
      ],
      "stateMutability": "view",
      "type": "function"
    },
    {
      "inputs": [
        {
          "internalType": "address",
          "name": "newOwner",
          "type": "address"
        }
      ],
      "name": "transferOwnership",
      "outputs": [],
      "stateMutability": "nonpayable",
      "type": "function"
    },
    {
      "inputs": [],
      "name": "usedAmount",
      "outputs": [
        {
          "internalType": "uint256",
          "name": "",
          "type": "uint256"
        }
      ],
      "stateMutability": "view",
      "type": "function"
    },
    {
      "inputs": [],
      "name": "vestedAmount",
      "outputs": [
        {
          "internalType": "uint256",
          "name": "",
          "type": "uint256"
        }
      ],
      "stateMutability": "view",
      "type": "function"
    },
    {
      "inputs": [],
      "name": "vestingCliffTime",
      "outputs": [
        {
          "internalType": "uint256",
          "name": "",
          "type": "uint256"
        }
      ],
      "stateMutability": "view",
      "type": "function"
    },
    {
      "inputs": [
        {
          "internalType": "uint256",
          "name": "_amount",
          "type": "uint256"
        }
      ],
      "name": "withdrawSurplus",
      "outputs": [],
      "stateMutability": "nonpayable",
      "type": "function"
    }
  ],
  "transactionHash": "0xad6672a356ade35072a1f3d32fe1da6e8c46cbd53b4315494d8972fc6586aac7",
  "args": [],
  "solcInputHash": "ccc82ccc102007017cf322f5b7601563",
  "bytecode": "0x608060405234801561001057600080fd5b5061373e806100206000396000f3fe60806040526004361061021e5760003560e01c806386d00e0211610123578063bc0163c1116100ab578063e8dda6f51161006f578063e8dda6f514610c51578063e97d87d514610c7c578063ebbab99214610ca7578063f2fde38b14610cd2578063fc0c546a14610d235761021f565b8063bc0163c114610a84578063bd896dcb14610aaf578063ce845d1d14610baa578063d0ebdbe714610bd5578063d18e81b314610c265761021f565b806391f7cfb9116100f257806391f7cfb9146109b1578063a4caeb42146109dc578063b0d1818c14610a07578063b470aade14610a42578063b6549f7514610a6d5761021f565b806386d00e02146108f857806386d1a69f14610923578063872a78101461093a5780638da5cb5b146109705761021f565b8063398057a3116101a65780635b940081116101755780635b9400811461084957806360e7994414610874578063715018a61461088b57806378e97925146108a25780637bdf05af146108cd5761021f565b8063398057a31461078757806344b1231f146107b257806345d30a17146107dd578063481c6a75146108085761021f565b80632a627814116101ed5780632a627814146106aa5780632bc9ed02146106c15780633197cbb6146106ee57806338af3eed14610719578063392e53cd1461075a5761021f565b8063029c6c9f146105fe57806306040618146106295780630dff24d5146106545780630fb5a6b41461067f5761021f565b5b600260009054906101000a900473ffffffffffffffffffffffffffffffffffffffff1673ffffffffffffffffffffffffffffffffffffffff163373ffffffffffffffffffffffffffffffffffffffff16146102e2576040517f08c379a00000000000000000000000000000000000000000000000000000000081526004018080602001828103825260138152602001807f556e617574686f72697a65642063616c6c65720000000000000000000000000081525060200191505060405180910390fd5b6000600b60009054906101000a900473ffffffffffffffffffffffffffffffffffffffff1673ffffffffffffffffffffffffffffffffffffffff1663f1d24c456000357fffffffff00000000000000000000000000000000000000000000000000000000166040518263ffffffff1660e01b815260040180827bffffffffffffffffffffffffffffffffffffffffffffffffffffffff1916815260200191505060206040518083038186803b15801561039a57600080fd5b505afa1580156103ae573d6000803e3d6000fd5b505050506040513d60208110156103c457600080fd5b81019080805190602001909291905050509050600073ffffffffffffffffffffffffffffffffffffffff168173ffffffffffffffffffffffffffffffffffffffff16141561047a576040517f08c379a00000000000000000000000000000000000000000000000000000000081526004018080602001828103825260158152602001807f556e617574686f72697a65642066756e6374696f6e000000000000000000000081525060200191505060405180910390fd5b6000610484610d64565b90506104d5826000368080601f016020809104026020016040519081016040528093929190818152602001838380828437600081840152601f19601f82011690508083019250505050505050610e2f565b50600160028111156104e357fe5b600960009054906101000a900460ff1660028111156104fe57fe5b14156105fa57600061050e610d64565b90508181101561055057600061052d8284610e7990919063ffffffff16565b905061054481600c54610efc90919063ffffffff16565b600c8190555050610596565b60006105658383610e7990919063ffffffff16565b9050600c5481101561058b5761058681600c54610e7990919063ffffffff16565b61058e565b60005b600c81905550505b61059e610f84565b600c5411156105f8576040517f08c379a00000000000000000000000000000000000000000000000000000000081526004018080602001828103825260298152602001806136116029913960400191505060405180910390fd5b505b5050005b34801561060a57600080fd5b50610613610ff3565b6040518082815260200191505060405180910390f35b34801561063557600080fd5b5061063e611011565b6040518082815260200191505060405180910390f35b34801561066057600080fd5b5061066961104c565b6040518082815260200191505060405180910390f35b34801561068b57600080fd5b50610694611093565b6040518082815260200191505060405180910390f35b3480156106b657600080fd5b506106bf6110b1565b005b3480156106cd57600080fd5b506106d661137e565b60405180821515815260200191505060405180910390f35b3480156106fa57600080fd5b50610703611391565b6040518082815260200191505060405180910390f35b34801561072557600080fd5b5061072e611397565b604051808273ffffffffffffffffffffffffffffffffffffffff16815260200191505060405180910390f35b34801561076657600080fd5b5061076f6113bd565b60405180821515815260200191505060405180910390f35b34801561079357600080fd5b5061079c6113d0565b6040518082815260200191505060405180910390f35b3480156107be57600080fd5b506107c7610f84565b6040518082815260200191505060405180910390f35b3480156107e957600080fd5b506107f26113d6565b6040518082815260200191505060405180910390f35b34801561081457600080fd5b5061081d6113dc565b604051808273ffffffffffffffffffffffffffffffffffffffff16815260200191505060405180910390f35b34801561085557600080fd5b5061085e611402565b6040518082815260200191505060405180910390f35b34801561088057600080fd5b506108896114bc565b005b34801561089757600080fd5b506108a061176a565b005b3480156108ae57600080fd5b506108b76118e9565b6040518082815260200191505060405180910390f35b3480156108d957600080fd5b506108e26118ef565b6040518082815260200191505060405180910390f35b34801561090457600080fd5b5061090d61192b565b6040518082815260200191505060405180910390f35b34801561092f57600080fd5b50610938611931565b005b34801561094657600080fd5b5061094f611b73565b6040518082600281111561095f57fe5b815260200191505060405180910390f35b34801561097c57600080fd5b50610985611b86565b604051808273ffffffffffffffffffffffffffffffffffffffff16815260200191505060405180910390f35b3480156109bd57600080fd5b506109c6611baf565b6040518082815260200191505060405180910390f35b3480156109e857600080fd5b506109f1611c0d565b6040518082815260200191505060405180910390f35b348015610a1357600080fd5b50610a4060048036036020811015610a2a57600080fd5b8101908080359060200190929190505050611c13565b005b348015610a4e57600080fd5b50610a57611e8e565b6040518082815260200191505060405180910390f35b348015610a7957600080fd5b50610a82611eb1565b005b348015610a9057600080fd5b50610a9961220e565b6040518082815260200191505060405180910390f35b348015610abb57600080fd5b50610ba86004803603610160811015610ad357600080fd5b81019080803573ffffffffffffffffffffffffffffffffffffffff169060200190929190803573ffffffffffffffffffffffffffffffffffffffff169060200190929190803573ffffffffffffffffffffffffffffffffffffffff169060200190929190803573ffffffffffffffffffffffffffffffffffffffff169060200190929190803590602001909291908035906020019092919080359060200190929190803590602001909291908035906020019092919080359060200190929190803560ff16906020019092919050505061222c565b005b348015610bb657600080fd5b50610bbf610d64565b6040518082815260200191505060405180910390f35b348015610be157600080fd5b50610c2460048036036020811015610bf857600080fd5b81019080803573ffffffffffffffffffffffffffffffffffffffff169060200190929190505050612254565b005b348015610c3257600080fd5b50610c3b612321565b6040518082815260200191505060405180910390f35b348015610c5d57600080fd5b50610c66612329565b6040518082815260200191505060405180910390f35b348015610c8857600080fd5b50610c9161232f565b6040518082815260200191505060405180910390f35b348015610cb357600080fd5b50610cbc612335565b6040518082815260200191505060405180910390f35b348015610cde57600080fd5b50610d2160048036036020811015610cf557600080fd5b81019080803573ffffffffffffffffffffffffffffffffffffffff169060200190929190505050612357565b005b348015610d2f57600080fd5b50610d3861255b565b604051808273ffffffffffffffffffffffffffffffffffffffff16815260200191505060405180910390f35b6000600160009054906101000a900473ffffffffffffffffffffffffffffffffffffffff1673ffffffffffffffffffffffffffffffffffffffff166370a08231306040518263ffffffff1660e01b8152600401808273ffffffffffffffffffffffffffffffffffffffff16815260200191505060206040518083038186803b158015610def57600080fd5b505afa158015610e03573d6000803e3d6000fd5b505050506040513d6020811015610e1957600080fd5b8101908080519060200190929190505050905090565b6060610e7183836040518060400160405280601e81526020017f416464726573733a206c6f772d6c6576656c2063616c6c206661696c65640000815250612581565b905092915050565b600082821115610ef1576040517f08c379a000000000000000000000000000000000000000000000000000000000815260040180806020018281038252601e8152602001807f536166654d6174683a207375627472616374696f6e206f766572666c6f77000081525060200191505060405180910390fd5b818303905092915050565b600080828401905083811015610f7a576040517f08c379a000000000000000000000000000000000000000000000000000000000815260040180806020018281038252601b8152602001807f536166654d6174683a206164646974696f6e206f766572666c6f77000000000081525060200191505060405180910390fd5b8091505092915050565b6000600280811115610f9257fe5b600960009054906101000a900460ff166002811115610fad57fe5b1415610fbd576003549050610ff0565b6000600854118015610fd75750600854610fd5612321565b105b15610fe55760009050610ff0565b610fed611baf565b90505b90565b600061100c60065460035461259990919063ffffffff16565b905090565b60006110476001611039611023611e8e565b61102b6118ef565b61259990919063ffffffff16565b610efc90919063ffffffff16565b905090565b600080611057610d64565b9050600061106361220e565b905080821115611089576110808183610e7990919063ffffffff16565b92505050611090565b6000925050505b90565b60006110ac600454600554610e7990919063ffffffff16565b905090565b600260009054906101000a900473ffffffffffffffffffffffffffffffffffffffff1673ffffffffffffffffffffffffffffffffffffffff163373ffffffffffffffffffffffffffffffffffffffff1614611174576040517f08c379a00000000000000000000000000000000000000000000000000000000081526004018080602001828103825260058152602001807f216175746800000000000000000000000000000000000000000000000000000081525060200191505060405180910390fd5b6060600b60009054906101000a900473ffffffffffffffffffffffffffffffffffffffff1673ffffffffffffffffffffffffffffffffffffffff1663a34574666040518163ffffffff1660e01b815260040160006040518083038186803b1580156111de57600080fd5b505afa1580156111f2573d6000803e3d6000fd5b505050506040513d6000823e3d601f19601f82011682018060405250602081101561121c57600080fd5b810190808051604051939291908464010000000082111561123c57600080fd5b8382019150602082018581111561125257600080fd5b825186602082028301116401000000008211171561126f57600080fd5b8083526020830192505050908051906020019060200280838360005b838110156112a657808201518184015260208101905061128b565b50505050905001604052505050905060005b815181101561134e576113418282815181106112d057fe5b60200260200101517fffffffffffffffffffffffffffffffffffffffffffffffffffffffffffffffff600160009054906101000a900473ffffffffffffffffffffffffffffffffffffffff1673ffffffffffffffffffffffffffffffffffffffff166126229092919063ffffffff16565b80806001019150506112b8565b507fb837fd51506ba3cc623a37c78ed22fd521f2f6e9f69a34d5c2a4a9474f27579360405160405180910390a150565b600960019054906101000a900460ff1681565b60055481565b600260009054906101000a900473ffffffffffffffffffffffffffffffffffffffff1681565b600960029054906101000a900460ff1681565b60035481565b600a5481565b600b60009054906101000a900473ffffffffffffffffffffffffffffffffffffffff1681565b60008060075411801561141d575060075461141b612321565b105b1561142b57600090506114b9565b6001600281111561143857fe5b600960009054906101000a900460ff16600281111561145357fe5b14801561146257506000600854115b80156114765750600854611474612321565b105b1561148457600090506114b9565b60006114a2600a54611494611baf565b610e7990919063ffffffff16565b90506114b56114af610d64565b826127e7565b9150505b90565b600260009054906101000a900473ffffffffffffffffffffffffffffffffffffffff1673ffffffffffffffffffffffffffffffffffffffff163373ffffffffffffffffffffffffffffffffffffffff161461157f576040517f08c379a00000000000000000000000000000000000000000000000000000000081526004018080602001828103825260058152602001807f216175746800000000000000000000000000000000000000000000000000000081525060200191505060405180910390fd5b6060600b60009054906101000a900473ffffffffffffffffffffffffffffffffffffffff1673ffffffffffffffffffffffffffffffffffffffff1663a34574666040518163ffffffff1660e01b815260040160006040518083038186803b1580156115e957600080fd5b505afa1580156115fd573d6000803e3d6000fd5b505050506040513d6000823e3d601f19601f82011682018060405250602081101561162757600080fd5b810190808051604051939291908464010000000082111561164757600080fd5b8382019150602082018581111561165d57600080fd5b825186602082028301116401000000008211171561167a57600080fd5b8083526020830192505050908051906020019060200280838360005b838110156116b1578082015181840152602081019050611696565b50505050905001604052505050905060005b815181101561173a5761172d8282815181106116db57fe5b60200260200101516000600160009054906101000a900473ffffffffffffffffffffffffffffffffffffffff1673ffffffffffffffffffffffffffffffffffffffff166126229092919063ffffffff16565b80806001019150506116c3565b507f6d317a20ba9d790014284bef285283cd61fde92e0f2711050f563a9d2cf4171160405160405180910390a150565b3373ffffffffffffffffffffffffffffffffffffffff1660008054906101000a900473ffffffffffffffffffffffffffffffffffffffff1673ffffffffffffffffffffffffffffffffffffffff161461182b576040517f08c379a00000000000000000000000000000000000000000000000000000000081526004018080602001828103825260208152602001807f4f776e61626c653a2063616c6c6572206973206e6f7420746865206f776e657281525060200191505060405180910390fd5b600073ffffffffffffffffffffffffffffffffffffffff1660008054906101000a900473ffffffffffffffffffffffffffffffffffffffff1673ffffffffffffffffffffffffffffffffffffffff167f8be0079c531659141344cd1fd0a4f28419497f9722a3daafe3b4186f6b6457e060405160405180910390a360008060006101000a81548173ffffffffffffffffffffffffffffffffffffffff021916908373ffffffffffffffffffffffffffffffffffffffff160217905550565b60045481565b6000806118fa612321565b9050600454811161190f576000915050611928565b61192460045482610e7990919063ffffffff16565b9150505b90565b60085481565b600260009054906101000a900473ffffffffffffffffffffffffffffffffffffffff1673ffffffffffffffffffffffffffffffffffffffff163373ffffffffffffffffffffffffffffffffffffffff16146119f4576040517f08c379a00000000000000000000000000000000000000000000000000000000081526004018080602001828103825260058152602001807f216175746800000000000000000000000000000000000000000000000000000081525060200191505060405180910390fd5b60006119fe611402565b905060008111611a76576040517f08c379a000000000000000000000000000000000000000000000000000000000815260040180806020018281038252601e8152602001807f4e6f20617661696c61626c652072656c65617361626c6520616d6f756e74000081525060200191505060405180910390fd5b611a8b81600a54610efc90919063ffffffff16565b600a81905550611b00600260009054906101000a900473ffffffffffffffffffffffffffffffffffffffff1682600160009054906101000a900473ffffffffffffffffffffffffffffffffffffffff1673ffffffffffffffffffffffffffffffffffffffff166128009092919063ffffffff16565b600260009054906101000a900473ffffffffffffffffffffffffffffffffffffffff1673ffffffffffffffffffffffffffffffffffffffff167fc7798891864187665ac6dd119286e44ec13f014527aeeb2b8eb3fd413df93179826040518082815260200191505060405180910390a250565b600960009054906101000a900460ff1681565b60008060009054906101000a900473ffffffffffffffffffffffffffffffffffffffff16905090565b600080611bba612321565b9050600454811015611bd0576000915050611c0a565b600554811115611be557600354915050611c0a565b611c06611bf0610ff3565b611bf8612335565b6128a290919063ffffffff16565b9150505b90565b60065481565b600260009054906101000a900473ffffffffffffffffffffffffffffffffffffffff1673ffffffffffffffffffffffffffffffffffffffff163373ffffffffffffffffffffffffffffffffffffffff1614611cd6576040517f08c379a00000000000000000000000000000000000000000000000000000000081526004018080602001828103825260058152602001807f216175746800000000000000000000000000000000000000000000000000000081525060200191505060405180910390fd5b60008111611d4c576040517f08c379a00000000000000000000000000000000000000000000000000000000081526004018080602001828103825260158152602001807f416d6f756e742063616e6e6f74206265207a65726f000000000000000000000081525060200191505060405180910390fd5b80611d5561104c565b1015611dac576040517f08c379a000000000000000000000000000000000000000000000000000000000815260040180806020018281038252602481526020018061365b6024913960400191505060405180910390fd5b611e1b600260009054906101000a900473ffffffffffffffffffffffffffffffffffffffff1682600160009054906101000a900473ffffffffffffffffffffffffffffffffffffffff1673ffffffffffffffffffffffffffffffffffffffff166128009092919063ffffffff16565b600260009054906101000a900473ffffffffffffffffffffffffffffffffffffffff1673ffffffffffffffffffffffffffffffffffffffff167f6352c5382c4a4578e712449ca65e83cdb392d045dfcf1cad9615189db2da244b826040518082815260200191505060405180910390a250565b6000611eac600654611e9e611093565b61259990919063ffffffff16565b905090565b3373ffffffffffffffffffffffffffffffffffffffff1660008054906101000a900473ffffffffffffffffffffffffffffffffffffffff1673ffffffffffffffffffffffffffffffffffffffff1614611f72576040517f08c379a00000000000000000000000000000000000000000000000000000000081526004018080602001828103825260208152602001807f4f776e61626c653a2063616c6c6572206973206e6f7420746865206f776e657281525060200191505060405180910390fd5b60016002811115611f7f57fe5b600960009054906101000a900460ff166002811115611f9a57fe5b1461200d576040517f08c379a00000000000000000000000000000000000000000000000000000000081526004018080602001828103825260198152602001807f436f6e7472616374206973206e6f6e2d7265766f6361626c650000000000000081525060200191505060405180910390fd5b60001515600960019054906101000a900460ff16151514612096576040517f08c379a000000000000000000000000000000000000000000000000000000000815260040180806020018281038252600f8152602001807f416c7265616479207265766f6b6564000000000000000000000000000000000081525060200191505060405180910390fd5b60006120b46120a3610f84565b600354610e7990919063ffffffff16565b90506000811161212c576040517f08c379a000000000000000000000000000000000000000000000000000000000815260040180806020018281038252601c8152602001807f4e6f20617661696c61626c6520756e76657374656420616d6f756e740000000081525060200191505060405180910390fd5b6001600960016101000a81548160ff02191690831515021790555061219b612152611b86565b82600160009054906101000a900473ffffffffffffffffffffffffffffffffffffffff1673ffffffffffffffffffffffffffffffffffffffff166128009092919063ffffffff16565b600260009054906101000a900473ffffffffffffffffffffffffffffffffffffffff1673ffffffffffffffffffffffffffffffffffffffff167fb73c49a3a37a7aca291ba0ceaa41657012def406106a7fc386888f0f66e941cf826040518082815260200191505060405180910390a250565b6000612227600a54600354610e7990919063ffffffff16565b905090565b61223e8a8a8a8a8a8a8a8a8a8a612928565b6122478b612fa9565b5050505050505050505050565b3373ffffffffffffffffffffffffffffffffffffffff1660008054906101000a900473ffffffffffffffffffffffffffffffffffffffff1673ffffffffffffffffffffffffffffffffffffffff1614612315576040517f08c379a00000000000000000000000000000000000000000000000000000000081526004018080602001828103825260208152602001807f4f776e61626c653a2063616c6c6572206973206e6f7420746865206f776e657281525060200191505060405180910390fd5b61231e81612fa9565b50565b600042905090565b600c5481565b60075481565b60006123526001612344611011565b610e7990919063ffffffff16565b905090565b3373ffffffffffffffffffffffffffffffffffffffff1660008054906101000a900473ffffffffffffffffffffffffffffffffffffffff1673ffffffffffffffffffffffffffffffffffffffff1614612418576040517f08c379a00000000000000000000000000000000000000000000000000000000081526004018080602001828103825260208152602001807f4f776e61626c653a2063616c6c6572206973206e6f7420746865206f776e657281525060200191505060405180910390fd5b600073ffffffffffffffffffffffffffffffffffffffff168173ffffffffffffffffffffffffffffffffffffffff16141561249e576040517f08c379a00000000000000000000000000000000000000000000000000000000081526004018080602001828103825260268152602001806135c56026913960400191505060405180910390fd5b8073ffffffffffffffffffffffffffffffffffffffff1660008054906101000a900473ffffffffffffffffffffffffffffffffffffffff1673ffffffffffffffffffffffffffffffffffffffff167f8be0079c531659141344cd1fd0a4f28419497f9722a3daafe3b4186f6b6457e060405160405180910390a3806000806101000a81548173ffffffffffffffffffffffffffffffffffffffff021916908373ffffffffffffffffffffffffffffffffffffffff16021790555050565b600160009054906101000a900473ffffffffffffffffffffffffffffffffffffffff1681565b6060612590848460008561318d565b90509392505050565b6000808211612610576040517f08c379a000000000000000000000000000000000000000000000000000000000815260040180806020018281038252601a8152602001807f536166654d6174683a206469766973696f6e206279207a65726f00000000000081525060200191505060405180910390fd5b81838161261957fe5b04905092915050565b60008114806126f0575060008373ffffffffffffffffffffffffffffffffffffffff1663dd62ed3e30856040518363ffffffff1660e01b8152600401808373ffffffffffffffffffffffffffffffffffffffff1681526020018273ffffffffffffffffffffffffffffffffffffffff1681526020019250505060206040518083038186803b1580156126b357600080fd5b505afa1580156126c7573d6000803e3d6000fd5b505050506040513d60208110156126dd57600080fd5b8101908080519060200190929190505050145b612745576040517f08c379a00000000000000000000000000000000000000000000000000000000081526004018080602001828103825260368152602001806136d36036913960400191505060405180910390fd5b6127e28363095ea7b360e01b8484604051602401808373ffffffffffffffffffffffffffffffffffffffff16815260200182815260200192505050604051602081830303815290604052907bffffffffffffffffffffffffffffffffffffffffffffffffffffffff19166020820180517bffffffffffffffffffffffffffffffffffffffffffffffffffffffff8381831617835250505050613336565b505050565b60008183106127f657816127f8565b825b905092915050565b61289d8363a9059cbb60e01b8484604051602401808373ffffffffffffffffffffffffffffffffffffffff16815260200182815260200192505050604051602081830303815290604052907bffffffffffffffffffffffffffffffffffffffffffffffffffffffff19166020820180517bffffffffffffffffffffffffffffffffffffffffffffffffffffffff8381831617835250505050613336565b505050565b6000808314156128b55760009050612922565b60008284029050828482816128c657fe5b041461291d576040517f08c379a000000000000000000000000000000000000000000000000000000000815260040180806020018281038252602181526020018061363a6021913960400191505060405180910390fd5b809150505b92915050565b600960029054906101000a900460ff16156129ab576040517f08c379a00000000000000000000000000000000000000000000000000000000081526004018080602001828103825260138152602001807f416c726561647920696e697469616c697a65640000000000000000000000000081525060200191505060405180910390fd5b600073ffffffffffffffffffffffffffffffffffffffff168a73ffffffffffffffffffffffffffffffffffffffff161415612a4e576040517f08c379a00000000000000000000000000000000000000000000000000000000081526004018080602001828103825260148152602001807f4f776e65722063616e6e6f74206265207a65726f00000000000000000000000081525060200191505060405180910390fd5b600073ffffffffffffffffffffffffffffffffffffffff168973ffffffffffffffffffffffffffffffffffffffff161415612af1576040517f08c379a000000000000000000000000000000000000000000000000000000000815260040180806020018281038252601a8152602001807f42656e65666963696172792063616e6e6f74206265207a65726f00000000000081525060200191505060405180910390fd5b600073ffffffffffffffffffffffffffffffffffffffff168873ffffffffffffffffffffffffffffffffffffffff161415612b94576040517f08c379a00000000000000000000000000000000000000000000000000000000081526004018080602001828103825260148152602001807f546f6b656e2063616e6e6f74206265207a65726f00000000000000000000000081525060200191505060405180910390fd5b60008711612c0a576040517f08c379a000000000000000000000000000000000000000000000000000000000815260040180806020018281038252601d8152602001807f4d616e6167656420746f6b656e732063616e6e6f74206265207a65726f00000081525060200191505060405180910390fd5b6000861415612c81576040517f08c379a00000000000000000000000000000000000000000000000000000000081526004018080602001828103825260168152602001807f53746172742074696d65206d757374206265207365740000000000000000000081525060200191505060405180910390fd5b848610612cf6576040517f08c379a00000000000000000000000000000000000000000000000000000000081526004018080602001828103825260158152602001807f53746172742074696d65203e20656e642074696d65000000000000000000000081525060200191505060405180910390fd5b6001841015612d6d576040517f08c379a000000000000000000000000000000000000000000000000000000000815260040180806020018281038252601f8152602001807f506572696f64732063616e6e6f742062652062656c6f77206d696e696d756d0081525060200191505060405180910390fd5b60006002811115612d7a57fe5b816002811115612d8657fe5b1415612dfa576040517f08c379a000000000000000000000000000000000000000000000000000000000815260040180806020018281038252601e8152602001807f4d757374207365742061207265766f636162696c697479206f7074696f6e000081525060200191505060405180910390fd5b848310612e52576040517f08c379a000000000000000000000000000000000000000000000000000000000815260040180806020018281038252602a81526020018061367f602a913960400191505060405180910390fd5b848210612eaa576040517f08c379a00000000000000000000000000000000000000000000000000000000081526004018080602001828103825260228152602001806135a36022913960400191505060405180910390fd5b6001600960026101000a81548160ff021916908315150217905550612ece8a613425565b88600260006101000a81548173ffffffffffffffffffffffffffffffffffffffff021916908373ffffffffffffffffffffffffffffffffffffffff16021790555087600160006101000a81548173ffffffffffffffffffffffffffffffffffffffff021916908373ffffffffffffffffffffffffffffffffffffffff16021790555086600381905550856004819055508460058190555083600681905550826007819055508160088190555080600960006101000a81548160ff02191690836002811115612f9857fe5b021790555050505050505050505050565b600073ffffffffffffffffffffffffffffffffffffffff168173ffffffffffffffffffffffffffffffffffffffff16141561304c576040517f08c379a00000000000000000000000000000000000000000000000000000000081526004018080602001828103825260178152602001807f4d616e616765722063616e6e6f7420626520656d70747900000000000000000081525060200191505060405180910390fd5b613055816134c3565b6130c7576040517f08c379a000000000000000000000000000000000000000000000000000000000815260040180806020018281038252601a8152602001807f4d616e61676572206d757374206265206120636f6e747261637400000000000081525060200191505060405180910390fd5b6000600b60009054906101000a900473ffffffffffffffffffffffffffffffffffffffff16905081600b60006101000a81548173ffffffffffffffffffffffffffffffffffffffff021916908373ffffffffffffffffffffffffffffffffffffffff1602179055508173ffffffffffffffffffffffffffffffffffffffff168173ffffffffffffffffffffffffffffffffffffffff167fdac3632743b879638fd2d51c4d3c1dd796615b4758a55b50b0c19b971ba9fbc760405160405180910390a35050565b6060824710156131e8576040517f08c379a00000000000000000000000000000000000000000000000000000000081526004018080602001828103825260268152602001806135eb6026913960400191505060405180910390fd5b6131f1856134c3565b613263576040517f08c379a000000000000000000000000000000000000000000000000000000000815260040180806020018281038252601d8152602001807f416464726573733a2063616c6c20746f206e6f6e2d636f6e747261637400000081525060200191505060405180910390fd5b600060608673ffffffffffffffffffffffffffffffffffffffff1685876040518082805190602001908083835b602083106132b35780518252602082019150602081019050602083039250613290565b6001836020036101000a03801982511681845116808217855250505050505090500191505060006040518083038185875af1925050503d8060008114613315576040519150601f19603f3d011682016040523d82523d6000602084013e61331a565b606091505b509150915061332a8282866134d6565b92505050949350505050565b6060613398826040518060400160405280602081526020017f5361666545524332303a206c6f772d6c6576656c2063616c6c206661696c65648152508573ffffffffffffffffffffffffffffffffffffffff166125819092919063ffffffff16565b9050600081511115613420578080602001905160208110156133b957600080fd5b810190808051906020019092919050505061341f576040517f08c379a000000000000000000000000000000000000000000000000000000000815260040180806020018281038252602a8152602001806136a9602a913960400191505060405180910390fd5b5b505050565b806000806101000a81548173ffffffffffffffffffffffffffffffffffffffff021916908373ffffffffffffffffffffffffffffffffffffffff1602179055508073ffffffffffffffffffffffffffffffffffffffff16600073ffffffffffffffffffffffffffffffffffffffff167f8be0079c531659141344cd1fd0a4f28419497f9722a3daafe3b4186f6b6457e060405160405180910390a350565b600080823b905060008111915050919050565b606083156134e65782905061359b565b6000835111156134f95782518084602001fd5b816040517f08c379a00000000000000000000000000000000000000000000000000000000081526004018080602001828103825283818151815260200191508051906020019080838360005b83811015613560578082015181840152602081019050613545565b50505050905090810190601f16801561358d5780820380516001836020036101000a031916815260200191505b509250505060405180910390fd5b939250505056fe436c6966662074696d65206d757374206265206265666f726520656e642074696d654f776e61626c653a206e6577206f776e657220697320746865207a65726f2061646472657373416464726573733a20696e73756666696369656e742062616c616e636520666f722063616c6c43616e6e6f7420757365206d6f726520746f6b656e73207468616e2076657374656420616d6f756e74536166654d6174683a206d756c7469706c69636174696f6e206f766572666c6f77416d6f756e7420726571756573746564203e20737572706c757320617661696c61626c6552656c656173652073746172742074696d65206d757374206265206265666f726520656e642074696d655361666545524332303a204552433230206f7065726174696f6e20646964206e6f7420737563636565645361666545524332303a20617070726f76652066726f6d206e6f6e2d7a65726f20746f206e6f6e2d7a65726f20616c6c6f77616e6365a2646970667358221220cc48d739e1a8482b566f43de0163a50f30dfe854c89a88c2aff9c3746523e8f964736f6c63430007030033",
  "devdoc": {
    "kind": "dev",
    "methods": {
      "amountPerPeriod()": {
        "returns": {
          "_0": "Amount of tokens available after each period"
        }
      },
      "approveProtocol()": {
        "details": "Approves all token destinations registered in the manager to pull tokens"
      },
      "availableAmount()": {
        "details": "Implements the step-by-step schedule based on periods for available tokens",
        "returns": {
          "_0": "Amount of tokens available according to the schedule"
        }
      },
      "currentBalance()": {
        "returns": {
          "_0": "Tokens held in the contract"
        }
      },
      "currentPeriod()": {
        "returns": {
          "_0": "A number that represents the current period"
        }
      },
      "currentTime()": {
        "returns": {
          "_0": "Current block timestamp"
        }
      },
      "duration()": {
        "returns": {
          "_0": "Amount of seconds from contract startTime to endTime"
        }
      },
      "owner()": {
        "details": "Returns the address of the current owner."
      },
      "passedPeriods()": {
        "returns": {
          "_0": "A number of periods that passed since the schedule started"
        }
      },
      "periodDuration()": {
        "returns": {
          "_0": "Duration of each period in seconds"
        }
      },
      "releasableAmount()": {
        "details": "Considers the schedule and takes into account already released tokens",
        "returns": {
          "_0": "Amount of tokens ready to be released"
        }
      },
      "release()": {
        "details": "All available releasable tokens are transferred to beneficiary"
      },
      "renounceOwnership()": {
        "details": "Leaves the contract without owner. It will not be possible to call `onlyOwner` functions anymore. Can only be called by the current owner. NOTE: Renouncing ownership will leave the contract without an owner, thereby removing any functionality that is only available to the owner."
      },
      "revoke()": {
        "details": "Vesting schedule is always calculated based on managed tokens"
      },
      "revokeProtocol()": {
        "details": "Revokes approval to all token destinations in the manager to pull tokens"
      },
      "setManager(address)": {
        "params": {
          "_newManager": "Address of the new manager"
        }
      },
      "sinceStartTime()": {
        "details": "Returns zero if called before conctract starTime",
        "returns": {
          "_0": "Seconds elapsed from contract startTime"
        }
      },
      "surplusAmount()": {
        "details": "All funds over outstanding amount is considered surplus that can be withdrawn by beneficiary",
        "returns": {
          "_0": "Amount of tokens considered as surplus"
        }
      },
      "totalOutstandingAmount()": {
        "details": "Does not consider schedule but just global amounts tracked",
        "returns": {
          "_0": "Amount of outstanding tokens for the lifetime of the contract"
        }
      },
      "transferOwnership(address)": {
        "details": "Transfers ownership of the contract to a new account (`newOwner`). Can only be called by the current owner."
      },
      "vestedAmount()": {
        "details": "Similar to available amount, but is fully vested when contract is non-revocable",
        "returns": {
          "_0": "Amount of tokens already vested"
        }
      },
      "withdrawSurplus(uint256)": {
        "details": "Tokens in the contract over outstanding amount are considered as surplus",
        "params": {
          "_amount": "Amount of tokens to withdraw"
        }
      }
    },
    "title": "GraphTokenLockWallet",
    "version": 1
  },
  "userdoc": {
    "kind": "user",
    "methods": {
      "amountPerPeriod()": {
        "notice": "Returns amount available to be released after each period according to schedule"
      },
      "approveProtocol()": {
        "notice": "Approves protocol access of the tokens managed by this contract"
      },
      "availableAmount()": {
        "notice": "Gets the currently available token according to the schedule"
      },
      "currentBalance()": {
        "notice": "Returns the amount of tokens currently held by the contract"
      },
      "currentPeriod()": {
        "notice": "Gets the current period based on the schedule"
      },
      "currentTime()": {
        "notice": "Returns the current block timestamp"
      },
      "duration()": {
        "notice": "Gets duration of contract from start to end in seconds"
      },
      "passedPeriods()": {
        "notice": "Gets the number of periods that passed since the first period"
      },
      "periodDuration()": {
        "notice": "Returns the duration of each period in seconds"
      },
      "releasableAmount()": {
        "notice": "Gets tokens currently available for release"
      },
      "release()": {
        "notice": "Releases tokens based on the configured schedule"
      },
      "revoke()": {
        "notice": "Revokes a vesting schedule and return the unvested tokens to the owner"
      },
      "revokeProtocol()": {
        "notice": "Revokes protocol access of the tokens managed by this contract"
      },
      "setManager(address)": {
        "notice": "Sets a new manager for this contract"
      },
      "sinceStartTime()": {
        "notice": "Gets time elapsed since the start of the contract"
      },
      "surplusAmount()": {
        "notice": "Gets surplus amount in the contract based on outstanding amount to release"
      },
      "totalOutstandingAmount()": {
        "notice": "Gets the outstanding amount yet to be released based on the whole contract lifetime"
      },
      "vestedAmount()": {
        "notice": "Gets the amount of currently vested tokens"
      },
      "withdrawSurplus(uint256)": {
        "notice": "Withdraws surplus, unmanaged tokens from the contract"
      }
    },
    "notice": "This contract is built on top of the base GraphTokenLock functionality. It allows wallet beneficiaries to use the deposited funds to perform specific function calls on specific contracts. The idea is that supporters with locked tokens can participate in the protocol but disallow any release before the vesting/lock schedule. The beneficiary can issue authorized function calls to this contract that will get forwarded to a target contract. A target contract is any of our protocol contracts. The function calls allowed are queried to the GraphTokenLockManager, this way the same configuration can be shared for all the created lock wallet contracts. NOTE: Contracts used as target must have its function signatures checked to avoid collisions with any of this contract functions. Beneficiaries need to approve the use of the tokens to the protocol contracts. For convenience the maximum amount of tokens is authorized.",
    "version": 1
  },
  "storageLayout": {
    "storage": [
      {
        "astId": 3693,
        "contract": "contracts/GraphTokenLockWallet.sol:GraphTokenLockWallet",
        "label": "_owner",
        "offset": 0,
        "slot": "0",
        "type": "t_address"
      },
      {
        "astId": 1701,
        "contract": "contracts/GraphTokenLockWallet.sol:GraphTokenLockWallet",
        "label": "token",
        "offset": 0,
        "slot": "1",
        "type": "t_contract(IERC20)542"
      },
      {
        "astId": 1703,
        "contract": "contracts/GraphTokenLockWallet.sol:GraphTokenLockWallet",
        "label": "beneficiary",
        "offset": 0,
        "slot": "2",
        "type": "t_address"
      },
      {
        "astId": 1705,
        "contract": "contracts/GraphTokenLockWallet.sol:GraphTokenLockWallet",
        "label": "managedAmount",
        "offset": 0,
        "slot": "3",
        "type": "t_uint256"
      },
      {
        "astId": 1707,
        "contract": "contracts/GraphTokenLockWallet.sol:GraphTokenLockWallet",
        "label": "startTime",
        "offset": 0,
        "slot": "4",
        "type": "t_uint256"
      },
      {
        "astId": 1709,
        "contract": "contracts/GraphTokenLockWallet.sol:GraphTokenLockWallet",
        "label": "endTime",
        "offset": 0,
        "slot": "5",
        "type": "t_uint256"
      },
      {
        "astId": 1711,
        "contract": "contracts/GraphTokenLockWallet.sol:GraphTokenLockWallet",
        "label": "periods",
        "offset": 0,
        "slot": "6",
        "type": "t_uint256"
      },
      {
        "astId": 1713,
        "contract": "contracts/GraphTokenLockWallet.sol:GraphTokenLockWallet",
        "label": "releaseStartTime",
        "offset": 0,
        "slot": "7",
        "type": "t_uint256"
      },
      {
        "astId": 1715,
        "contract": "contracts/GraphTokenLockWallet.sol:GraphTokenLockWallet",
        "label": "vestingCliffTime",
        "offset": 0,
        "slot": "8",
        "type": "t_uint256"
      },
      {
        "astId": 1717,
        "contract": "contracts/GraphTokenLockWallet.sol:GraphTokenLockWallet",
        "label": "revocable",
        "offset": 0,
        "slot": "9",
        "type": "t_enum(Revocability)3370"
      },
      {
        "astId": 1719,
        "contract": "contracts/GraphTokenLockWallet.sol:GraphTokenLockWallet",
        "label": "isRevoked",
        "offset": 1,
        "slot": "9",
        "type": "t_bool"
      },
      {
        "astId": 1721,
        "contract": "contracts/GraphTokenLockWallet.sol:GraphTokenLockWallet",
        "label": "isInitialized",
        "offset": 2,
        "slot": "9",
        "type": "t_bool"
      },
      {
        "astId": 1723,
        "contract": "contracts/GraphTokenLockWallet.sol:GraphTokenLockWallet",
        "label": "releasedAmount",
        "offset": 0,
        "slot": "10",
        "type": "t_uint256"
      },
      {
        "astId": 3058,
        "contract": "contracts/GraphTokenLockWallet.sol:GraphTokenLockWallet",
        "label": "manager",
        "offset": 0,
        "slot": "11",
        "type": "t_contract(IGraphTokenLockManager)3552"
      },
      {
        "astId": 3060,
        "contract": "contracts/GraphTokenLockWallet.sol:GraphTokenLockWallet",
        "label": "usedAmount",
        "offset": 0,
        "slot": "12",
        "type": "t_uint256"
      }
    ],
    "types": {
      "t_address": {
        "encoding": "inplace",
        "label": "address",
        "numberOfBytes": "20"
      },
      "t_bool": {
        "encoding": "inplace",
        "label": "bool",
        "numberOfBytes": "1"
      },
      "t_contract(IERC20)542": {
        "encoding": "inplace",
        "label": "contract IERC20",
        "numberOfBytes": "20"
      },
      "t_contract(IGraphTokenLockManager)3552": {
        "encoding": "inplace",
        "label": "contract IGraphTokenLockManager",
        "numberOfBytes": "20"
      },
      "t_enum(Revocability)3370": {
        "encoding": "inplace",
        "label": "enum IGraphTokenLock.Revocability",
        "numberOfBytes": "1"
      },
      "t_uint256": {
        "encoding": "inplace",
        "label": "uint256",
        "numberOfBytes": "32"
      }
    }
  }
}